{
	"src/contracts/ImageStorage.sol": {
		"ImageStorage": {
			"abi": [
				{
					"anonymous": false,
					"inputs": [
						{
							"indexed": true,
							"internalType": "uint256",
							"name": "id",
							"type": "uint256"
						},
						{
							"indexed": false,
							"internalType": "string",
							"name": "ipfsHash",
							"type": "string"
						},
						{
							"indexed": false,
							"internalType": "string",
							"name": "title",
							"type": "string"
						},
						{
							"indexed": false,
							"internalType": "string",
							"name": "description",
							"type": "string"
						}
					],
					"name": "ImageStored",
					"type": "event"
				},
				{
					"inputs": [
						{
							"internalType": "uint256",
							"name": "_id",
							"type": "uint256"
						}
					],
					"name": "getImage",
					"outputs": [
						{
							"internalType": "string",
							"name": "",
							"type": "string"
						},
						{
							"internalType": "string",
							"name": "",
							"type": "string"
						},
						{
							"internalType": "string",
							"name": "",
							"type": "string"
						}
					],
					"stateMutability": "view",
					"type": "function"
				},
				{
					"inputs": [],
					"name": "imageCount",
					"outputs": [
						{
							"internalType": "uint256",
							"name": "",
							"type": "uint256"
						}
					],
					"stateMutability": "view",
					"type": "function"
				},
				{
					"inputs": [
						{
							"internalType": "uint256",
							"name": "",
							"type": "uint256"
						}
					],
					"name": "images",
					"outputs": [
						{
							"internalType": "string",
							"name": "ipfsHash",
							"type": "string"
						},
						{
							"internalType": "string",
							"name": "title",
							"type": "string"
						},
						{
							"internalType": "string",
							"name": "description",
							"type": "string"
						}
					],
					"stateMutability": "view",
					"type": "function"
				},
				{
					"inputs": [
						{
							"internalType": "string",
							"name": "_ipfsHash",
							"type": "string"
						},
						{
							"internalType": "string",
							"name": "_title",
							"type": "string"
						},
						{
							"internalType": "string",
							"name": "_description",
							"type": "string"
						}
					],
					"name": "storeImage",
					"outputs": [],
					"stateMutability": "nonpayable",
					"type": "function"
				}
			],
			"devdoc": {
				"kind": "dev",
				"methods": {},
				"version": 1
			},
			"evm": {
				"assembly": "    /* \"src/contracts/ImageStorage.sol\":57:1516  contract ImageStorage {... */\n  mstore(0x40, 0x80)\n  callvalue\n  dup1\n  iszero\n  tag_1\n  jumpi\n  0x00\n  dup1\n  revert\ntag_1:\n  pop\n  dataSize(sub_0)\n  dup1\n  dataOffset(sub_0)\n  0x00\n  codecopy\n  0x00\n  return\nstop\n\nsub_0: assembly {\n        /* \"src/contracts/ImageStorage.sol\":57:1516  contract ImageStorage {... */\n      mstore(0x40, 0x80)\n      callvalue\n      dup1\n      iszero\n      tag_1\n      jumpi\n      0x00\n      dup1\n      revert\n    tag_1:\n      pop\n      jumpi(tag_2, lt(calldatasize, 0x04))\n      shr(0xe0, calldataload(0x00))\n      dup1\n      0x2607aafa\n      eq\n      tag_3\n      jumpi\n      dup1\n      0x84856482\n      eq\n      tag_4\n      jumpi\n      dup1\n      0x92053b63\n      eq\n      tag_5\n      jumpi\n      dup1\n      0xed840896\n      eq\n      tag_6\n      jumpi\n    tag_2:\n      0x00\n      dup1\n      revert\n        /* \"src/contracts/ImageStorage.sol\":1208:1514  function getImage(uint256 _id)... */\n    tag_3:\n      tag_7\n      0x04\n      dup1\n      calldatasize\n      sub\n      dup2\n      add\n      swap1\n      tag_8\n      swap2\n      swap1\n      tag_9\n      jump\t// in\n    tag_8:\n      tag_10\n      jump\t// in\n    tag_7:\n      mload(0x40)\n      tag_11\n      swap4\n      swap3\n      swap2\n      swap1\n      tag_12\n      jump\t// in\n    tag_11:\n      mload(0x40)\n      dup1\n      swap2\n      sub\n      swap1\n      return\n        /* \"src/contracts/ImageStorage.sol\":369:408  mapping(uint256 => Image) public images */\n    tag_4:\n      tag_13\n      0x04\n      dup1\n      calldatasize\n      sub\n      dup2\n      add\n      swap1\n      tag_14\n      swap2\n      swap1\n      tag_9\n      jump\t// in\n    tag_14:\n      tag_15\n      jump\t// in\n    tag_13:\n      mload(0x40)\n      tag_16\n      swap4\n      swap3\n      swap2\n      swap1\n      tag_12\n      jump\t// in\n    tag_16:\n      mload(0x40)\n      dup1\n      swap2\n      sub\n      swap1\n      return\n        /* \"src/contracts/ImageStorage.sol\":454:479  uint256 public imageCount */\n    tag_5:\n      tag_17\n      tag_18\n      jump\t// in\n    tag_17:\n      mload(0x40)\n      tag_19\n      swap2\n      swap1\n      tag_20\n      jump\t// in\n    tag_19:\n      mload(0x40)\n      dup1\n      swap2\n      sub\n      swap1\n      return\n        /* \"src/contracts/ImageStorage.sol\":728:1148  function storeImage(... */\n    tag_6:\n      tag_21\n      0x04\n      dup1\n      calldatasize\n      sub\n      dup2\n      add\n      swap1\n      tag_22\n      swap2\n      swap1\n      tag_23\n      jump\t// in\n    tag_22:\n      tag_24\n      jump\t// in\n    tag_21:\n      stop\n        /* \"src/contracts/ImageStorage.sol\":1208:1514  function getImage(uint256 _id)... */\n    tag_10:\n        /* \"src/contracts/ImageStorage.sol\":1284:1297  string memory */\n      0x60\n        /* \"src/contracts/ImageStorage.sol\":1299:1312  string memory */\n      dup1\n        /* \"src/contracts/ImageStorage.sol\":1314:1327  string memory */\n      0x60\n        /* \"src/contracts/ImageStorage.sol\":1357:1358  0 */\n      0x00\n        /* \"src/contracts/ImageStorage.sol\":1351:1354  _id */\n      dup5\n        /* \"src/contracts/ImageStorage.sol\":1351:1358  _id > 0 */\n      gt\n        /* \"src/contracts/ImageStorage.sol\":1351:1379  _id > 0 && _id <= imageCount */\n      dup1\n      iszero\n      tag_26\n      jumpi\n      pop\n        /* \"src/contracts/ImageStorage.sol\":1369:1379  imageCount */\n      sload(0x01)\n        /* \"src/contracts/ImageStorage.sol\":1362:1365  _id */\n      dup5\n        /* \"src/contracts/ImageStorage.sol\":1362:1379  _id <= imageCount */\n      gt\n      iszero\n        /* \"src/contracts/ImageStorage.sol\":1351:1379  _id > 0 && _id <= imageCount */\n    tag_26:\n        /* \"src/contracts/ImageStorage.sol\":1343:1400  require(_id > 0 && _id <= imageCount, \"Invalid image ID\") */\n      tag_27\n      jumpi\n      mload(0x40)\n      0x08c379a000000000000000000000000000000000000000000000000000000000\n      dup2\n      mstore\n      0x04\n      add\n      tag_28\n      swap1\n      tag_29\n      jump\t// in\n    tag_28:\n      mload(0x40)\n      dup1\n      swap2\n      sub\n      swap1\n      revert\n    tag_27:\n        /* \"src/contracts/ImageStorage.sol\":1410:1428  Image memory image */\n      0x00\n        /* \"src/contracts/ImageStorage.sol\":1431:1437  images */\n      dup1\n        /* \"src/contracts/ImageStorage.sol\":1431:1442  images[_id] */\n      0x00\n        /* \"src/contracts/ImageStorage.sol\":1438:1441  _id */\n      dup7\n        /* \"src/contracts/ImageStorage.sol\":1431:1442  images[_id] */\n      dup2\n      mstore\n      0x20\n      add\n      swap1\n      dup2\n      mstore\n      0x20\n      add\n      0x00\n      keccak256\n        /* \"src/contracts/ImageStorage.sol\":1410:1442  Image memory image = images[_id] */\n      mload(0x40)\n      dup1\n      0x60\n      add\n      0x40\n      mstore\n      swap1\n      dup2\n      0x00\n      dup3\n      add\n      dup1\n      sload\n      tag_30\n      swap1\n      tag_31\n      jump\t// in\n    tag_30:\n      dup1\n      0x1f\n      add\n      0x20\n      dup1\n      swap2\n      div\n      mul\n      0x20\n      add\n      mload(0x40)\n      swap1\n      dup2\n      add\n      0x40\n      mstore\n      dup1\n      swap3\n      swap2\n      swap1\n      dup2\n      dup2\n      mstore\n      0x20\n      add\n      dup3\n      dup1\n      sload\n      tag_32\n      swap1\n      tag_31\n      jump\t// in\n    tag_32:\n      dup1\n      iszero\n      tag_33\n      jumpi\n      dup1\n      0x1f\n      lt\n      tag_34\n      jumpi\n      0x0100\n      dup1\n      dup4\n      sload\n      div\n      mul\n      dup4\n      mstore\n      swap2\n      0x20\n      add\n      swap2\n      jump(tag_33)\n    tag_34:\n      dup3\n      add\n      swap2\n      swap1\n      0x00\n      mstore\n      keccak256(0x00, 0x20)\n      swap1\n    tag_35:\n      dup2\n      sload\n      dup2\n      mstore\n      swap1\n      0x01\n      add\n      swap1\n      0x20\n      add\n      dup1\n      dup4\n      gt\n      tag_35\n      jumpi\n      dup3\n      swap1\n      sub\n      0x1f\n      and\n      dup3\n      add\n      swap2\n    tag_33:\n      pop\n      pop\n      pop\n      pop\n      pop\n      dup2\n      mstore\n      0x20\n      add\n      0x01\n      dup3\n      add\n      dup1\n      sload\n      tag_36\n      swap1\n      tag_31\n      jump\t// in\n    tag_36:\n      dup1\n      0x1f\n      add\n      0x20\n      dup1\n      swap2\n      div\n      mul\n      0x20\n      add\n      mload(0x40)\n      swap1\n      dup2\n      add\n      0x40\n      mstore\n      dup1\n      swap3\n      swap2\n      swap1\n      dup2\n      dup2\n      mstore\n      0x20\n      add\n      dup3\n      dup1\n      sload\n      tag_37\n      swap1\n      tag_31\n      jump\t// in\n    tag_37:\n      dup1\n      iszero\n      tag_38\n      jumpi\n      dup1\n      0x1f\n      lt\n      tag_39\n      jumpi\n      0x0100\n      dup1\n      dup4\n      sload\n      div\n      mul\n      dup4\n      mstore\n      swap2\n      0x20\n      add\n      swap2\n      jump(tag_38)\n    tag_39:\n      dup3\n      add\n      swap2\n      swap1\n      0x00\n      mstore\n      keccak256(0x00, 0x20)\n      swap1\n    tag_40:\n      dup2\n      sload\n      dup2\n      mstore\n      swap1\n      0x01\n      add\n      swap1\n      0x20\n      add\n      dup1\n      dup4\n      gt\n      tag_40\n      jumpi\n      dup3\n      swap1\n      sub\n      0x1f\n      and\n      dup3\n      add\n      swap2\n    tag_38:\n      pop\n      pop\n      pop\n      pop\n      pop\n      dup2\n      mstore\n      0x20\n      add\n      0x02\n      dup3\n      add\n      dup1\n      sload\n      tag_41\n      swap1\n      tag_31\n      jump\t// in\n    tag_41:\n      dup1\n      0x1f\n      add\n      0x20\n      dup1\n      swap2\n      div\n      mul\n      0x20\n      add\n      mload(0x40)\n      swap1\n      dup2\n      add\n      0x40\n      mstore\n      dup1\n      swap3\n      swap2\n      swap1\n      dup2\n      dup2\n      mstore\n      0x20\n      add\n      dup3\n      dup1\n      sload\n      tag_42\n      swap1\n      tag_31\n      jump\t// in\n    tag_42:\n      dup1\n      iszero\n      tag_43\n      jumpi\n      dup1\n      0x1f\n      lt\n      tag_44\n      jumpi\n      0x0100\n      dup1\n      dup4\n      sload\n      div\n      mul\n      dup4\n      mstore\n      swap2\n      0x20\n      add\n      swap2\n      jump(tag_43)\n    tag_44:\n      dup3\n      add\n      swap2\n      swap1\n      0x00\n      mstore\n      keccak256(0x00, 0x20)\n      swap1\n    tag_45:\n      dup2\n      sload\n      dup2\n      mstore\n      swap1\n      0x01\n      add\n      swap1\n      0x20\n      add\n      dup1\n      dup4\n      gt\n      tag_45\n      jumpi\n      dup3\n      swap1\n      sub\n      0x1f\n      and\n      dup3\n      add\n      swap2\n    tag_43:\n      pop\n      pop\n      pop\n      pop\n      pop\n      dup2\n      mstore\n      pop\n      pop\n      swap1\n      pop\n        /* \"src/contracts/ImageStorage.sol\":1460:1465  image */\n      dup1\n        /* \"src/contracts/ImageStorage.sol\":1460:1474  image.ipfsHash */\n      0x00\n      add\n      mload\n        /* \"src/contracts/ImageStorage.sol\":1476:1481  image */\n      dup2\n        /* \"src/contracts/ImageStorage.sol\":1476:1487  image.title */\n      0x20\n      add\n      mload\n        /* \"src/contracts/ImageStorage.sol\":1489:1494  image */\n      dup3\n        /* \"src/contracts/ImageStorage.sol\":1489:1506  image.description */\n      0x40\n      add\n      mload\n        /* \"src/contracts/ImageStorage.sol\":1452:1507  return (image.ipfsHash, image.title, image.description) */\n      swap4\n      pop\n      swap4\n      pop\n      swap4\n      pop\n      pop\n        /* \"src/contracts/ImageStorage.sol\":1208:1514  function getImage(uint256 _id)... */\n      swap2\n      swap4\n      swap1\n      swap3\n      pop\n      jump\t// out\n        /* \"src/contracts/ImageStorage.sol\":369:408  mapping(uint256 => Image) public images */\n    tag_15:\n      mstore(0x20, 0x00)\n      dup1\n      0x00\n      mstore\n      keccak256(0x00, 0x40)\n      0x00\n      swap2\n      pop\n      swap1\n      pop\n      dup1\n      0x00\n      add\n      dup1\n      sload\n      tag_46\n      swap1\n      tag_31\n      jump\t// in\n    tag_46:\n      dup1\n      0x1f\n      add\n      0x20\n      dup1\n      swap2\n      div\n      mul\n      0x20\n      add\n      mload(0x40)\n      swap1\n      dup2\n      add\n      0x40\n      mstore\n      dup1\n      swap3\n      swap2\n      swap1\n      dup2\n      dup2\n      mstore\n      0x20\n      add\n      dup3\n      dup1\n      sload\n      tag_47\n      swap1\n      tag_31\n      jump\t// in\n    tag_47:\n      dup1\n      iszero\n      tag_48\n      jumpi\n      dup1\n      0x1f\n      lt\n      tag_49\n      jumpi\n      0x0100\n      dup1\n      dup4\n      sload\n      div\n      mul\n      dup4\n      mstore\n      swap2\n      0x20\n      add\n      swap2\n      jump(tag_48)\n    tag_49:\n      dup3\n      add\n      swap2\n      swap1\n      0x00\n      mstore\n      keccak256(0x00, 0x20)\n      swap1\n    tag_50:\n      dup2\n      sload\n      dup2\n      mstore\n      swap1\n      0x01\n      add\n      swap1\n      0x20\n      add\n      dup1\n      dup4\n      gt\n      tag_50\n      jumpi\n      dup3\n      swap1\n      sub\n      0x1f\n      and\n      dup3\n      add\n      swap2\n    tag_48:\n      pop\n      pop\n      pop\n      pop\n      pop\n      swap1\n      dup1\n      0x01\n      add\n      dup1\n      sload\n      tag_51\n      swap1\n      tag_31\n      jump\t// in\n    tag_51:\n      dup1\n      0x1f\n      add\n      0x20\n      dup1\n      swap2\n      div\n      mul\n      0x20\n      add\n      mload(0x40)\n      swap1\n      dup2\n      add\n      0x40\n      mstore\n      dup1\n      swap3\n      swap2\n      swap1\n      dup2\n      dup2\n      mstore\n      0x20\n      add\n      dup3\n      dup1\n      sload\n      tag_52\n      swap1\n      tag_31\n      jump\t// in\n    tag_52:\n      dup1\n      iszero\n      tag_53\n      jumpi\n      dup1\n      0x1f\n      lt\n      tag_54\n      jumpi\n      0x0100\n      dup1\n      dup4\n      sload\n      div\n      mul\n      dup4\n      mstore\n      swap2\n      0x20\n      add\n      swap2\n      jump(tag_53)\n    tag_54:\n      dup3\n      add\n      swap2\n      swap1\n      0x00\n      mstore\n      keccak256(0x00, 0x20)\n      swap1\n    tag_55:\n      dup2\n      sload\n      dup2\n      mstore\n      swap1\n      0x01\n      add\n      swap1\n      0x20\n      add\n      dup1\n      dup4\n      gt\n      tag_55\n      jumpi\n      dup3\n      swap1\n      sub\n      0x1f\n      and\n      dup3\n      add\n      swap2\n    tag_53:\n      pop\n      pop\n      pop\n      pop\n      pop\n      swap1\n      dup1\n      0x02\n      add\n      dup1\n      sload\n      tag_56\n      swap1\n      tag_31\n      jump\t// in\n    tag_56:\n      dup1\n      0x1f\n      add\n      0x20\n      dup1\n      swap2\n      div\n      mul\n      0x20\n      add\n      mload(0x40)\n      swap1\n      dup2\n      add\n      0x40\n      mstore\n      dup1\n      swap3\n      swap2\n      swap1\n      dup2\n      dup2\n      mstore\n      0x20\n      add\n      dup3\n      dup1\n      sload\n      tag_57\n      swap1\n      tag_31\n      jump\t// in\n    tag_57:\n      dup1\n      iszero\n      tag_58\n      jumpi\n      dup1\n      0x1f\n      lt\n      tag_59\n      jumpi\n      0x0100\n      dup1\n      dup4\n      sload\n      div\n      mul\n      dup4\n      mstore\n      swap2\n      0x20\n      add\n      swap2\n      jump(tag_58)\n    tag_59:\n      dup3\n      add\n      swap2\n      swap1\n      0x00\n      mstore\n      keccak256(0x00, 0x20)\n      swap1\n    tag_60:\n      dup2\n      sload\n      dup2\n      mstore\n      swap1\n      0x01\n      add\n      swap1\n      0x20\n      add\n      dup1\n      dup4\n      gt\n      tag_60\n      jumpi\n      dup3\n      swap1\n      sub\n      0x1f\n      and\n      dup3\n      add\n      swap2\n    tag_58:\n      pop\n      pop\n      pop\n      pop\n      pop\n      swap1\n      pop\n      dup4\n      jump\t// out\n        /* \"src/contracts/ImageStorage.sol\":454:479  uint256 public imageCount */\n    tag_18:\n      sload(0x01)\n      dup2\n      jump\t// out\n        /* \"src/contracts/ImageStorage.sol\":728:1148  function storeImage(... */\n    tag_24:\n        /* \"src/contracts/ImageStorage.sol\":915:925  imageCount */\n      0x01\n      0x00\n        /* \"src/contracts/ImageStorage.sol\":915:927  imageCount++ */\n      dup2\n      sload\n      dup1\n      swap3\n      swap2\n      swap1\n      tag_62\n      swap1\n      tag_63\n      jump\t// in\n    tag_62:\n      swap2\n      swap1\n      pop\n      sstore\n      pop\n        /* \"src/contracts/ImageStorage.sol\":997:1035  Image(_ipfsHash, _title, _description) */\n      mload(0x40)\n      dup1\n      0x60\n      add\n      0x40\n      mstore\n      dup1\n        /* \"src/contracts/ImageStorage.sol\":1003:1012  _ipfsHash */\n      dup5\n        /* \"src/contracts/ImageStorage.sol\":997:1035  Image(_ipfsHash, _title, _description) */\n      dup2\n      mstore\n      0x20\n      add\n        /* \"src/contracts/ImageStorage.sol\":1014:1020  _title */\n      dup4\n        /* \"src/contracts/ImageStorage.sol\":997:1035  Image(_ipfsHash, _title, _description) */\n      dup2\n      mstore\n      0x20\n      add\n        /* \"src/contracts/ImageStorage.sol\":1022:1034  _description */\n      dup3\n        /* \"src/contracts/ImageStorage.sol\":997:1035  Image(_ipfsHash, _title, _description) */\n      dup2\n      mstore\n      pop\n        /* \"src/contracts/ImageStorage.sol\":976:982  images */\n      0x00\n        /* \"src/contracts/ImageStorage.sol\":976:994  images[imageCount] */\n      dup1\n        /* \"src/contracts/ImageStorage.sol\":983:993  imageCount */\n      sload(0x01)\n        /* \"src/contracts/ImageStorage.sol\":976:994  images[imageCount] */\n      dup2\n      mstore\n      0x20\n      add\n      swap1\n      dup2\n      mstore\n      0x20\n      add\n      0x00\n      keccak256\n        /* \"src/contracts/ImageStorage.sol\":976:1035  images[imageCount] = Image(_ipfsHash, _title, _description) */\n      0x00\n      dup3\n      add\n      mload\n      dup2\n      0x00\n      add\n      swap1\n      dup2\n      tag_64\n      swap2\n      swap1\n      tag_65\n      jump\t// in\n    tag_64:\n      pop\n      0x20\n      dup3\n      add\n      mload\n      dup2\n      0x01\n      add\n      swap1\n      dup2\n      tag_66\n      swap2\n      swap1\n      tag_65\n      jump\t// in\n    tag_66:\n      pop\n      0x40\n      dup3\n      add\n      mload\n      dup2\n      0x02\n      add\n      swap1\n      dup2\n      tag_67\n      swap2\n      swap1\n      tag_65\n      jump\t// in\n    tag_67:\n      pop\n      swap1\n      pop\n      pop\n        /* \"src/contracts/ImageStorage.sol\":1097:1107  imageCount */\n      sload(0x01)\n        /* \"src/contracts/ImageStorage.sol\":1085:1141  ImageStored(imageCount, _ipfsHash, _title, _description) */\n      0x4dcc1ab7294bfba74f40cd7a0ef3409e1fec2ba6761321f919ecb4f3b5fe7a5e\n        /* \"src/contracts/ImageStorage.sol\":1109:1118  _ipfsHash */\n      dup5\n        /* \"src/contracts/ImageStorage.sol\":1120:1126  _title */\n      dup5\n        /* \"src/contracts/ImageStorage.sol\":1128:1140  _description */\n      dup5\n        /* \"src/contracts/ImageStorage.sol\":1085:1141  ImageStored(imageCount, _ipfsHash, _title, _description) */\n      mload(0x40)\n      tag_68\n      swap4\n      swap3\n      swap2\n      swap1\n      tag_12\n      jump\t// in\n    tag_68:\n      mload(0x40)\n      dup1\n      swap2\n      sub\n      swap1\n      log2\n        /* \"src/contracts/ImageStorage.sol\":728:1148  function storeImage(... */\n      pop\n      pop\n      pop\n      jump\t// out\n        /* \"#utility.yul\":7:82   */\n    tag_69:\n        /* \"#utility.yul\":40:46   */\n      0x00\n        /* \"#utility.yul\":73:75   */\n      0x40\n        /* \"#utility.yul\":67:76   */\n      mload\n        /* \"#utility.yul\":57:76   */\n      swap1\n      pop\n        /* \"#utility.yul\":7:82   */\n      swap1\n      jump\t// out\n        /* \"#utility.yul\":88:205   */\n    tag_70:\n        /* \"#utility.yul\":197:198   */\n      0x00\n        /* \"#utility.yul\":194:195   */\n      dup1\n        /* \"#utility.yul\":187:199   */\n      revert\n        /* \"#utility.yul\":211:328   */\n    tag_71:\n        /* \"#utility.yul\":320:321   */\n      0x00\n        /* \"#utility.yul\":317:318   */\n      dup1\n        /* \"#utility.yul\":310:322   */\n      revert\n        /* \"#utility.yul\":334:411   */\n    tag_72:\n        /* \"#utility.yul\":371:378   */\n      0x00\n        /* \"#utility.yul\":400:405   */\n      dup2\n        /* \"#utility.yul\":389:405   */\n      swap1\n      pop\n        /* \"#utility.yul\":334:411   */\n      swap2\n      swap1\n      pop\n      jump\t// out\n        /* \"#utility.yul\":417:539   */\n    tag_73:\n        /* \"#utility.yul\":490:514   */\n      tag_115\n        /* \"#utility.yul\":508:513   */\n      dup2\n        /* \"#utility.yul\":490:514   */\n      tag_72\n      jump\t// in\n    tag_115:\n        /* \"#utility.yul\":483:488   */\n      dup2\n        /* \"#utility.yul\":480:515   */\n      eq\n        /* \"#utility.yul\":470:533   */\n      tag_116\n      jumpi\n        /* \"#utility.yul\":529:530   */\n      0x00\n        /* \"#utility.yul\":526:527   */\n      dup1\n        /* \"#utility.yul\":519:531   */\n      revert\n        /* \"#utility.yul\":470:533   */\n    tag_116:\n        /* \"#utility.yul\":417:539   */\n      pop\n      jump\t// out\n        /* \"#utility.yul\":545:684   */\n    tag_74:\n        /* \"#utility.yul\":591:596   */\n      0x00\n        /* \"#utility.yul\":629:635   */\n      dup2\n        /* \"#utility.yul\":616:636   */\n      calldataload\n        /* \"#utility.yul\":607:636   */\n      swap1\n      pop\n        /* \"#utility.yul\":645:678   */\n      tag_118\n        /* \"#utility.yul\":672:677   */\n      dup2\n        /* \"#utility.yul\":645:678   */\n      tag_73\n      jump\t// in\n    tag_118:\n        /* \"#utility.yul\":545:684   */\n      swap3\n      swap2\n      pop\n      pop\n      jump\t// out\n        /* \"#utility.yul\":690:1019   */\n    tag_9:\n        /* \"#utility.yul\":749:755   */\n      0x00\n        /* \"#utility.yul\":798:800   */\n      0x20\n        /* \"#utility.yul\":786:795   */\n      dup3\n        /* \"#utility.yul\":777:784   */\n      dup5\n        /* \"#utility.yul\":773:796   */\n      sub\n        /* \"#utility.yul\":769:801   */\n      slt\n        /* \"#utility.yul\":766:885   */\n      iszero\n      tag_120\n      jumpi\n        /* \"#utility.yul\":804:883   */\n      tag_121\n      tag_70\n      jump\t// in\n    tag_121:\n        /* \"#utility.yul\":766:885   */\n    tag_120:\n        /* \"#utility.yul\":924:925   */\n      0x00\n        /* \"#utility.yul\":949:1002   */\n      tag_122\n        /* \"#utility.yul\":994:1001   */\n      dup5\n        /* \"#utility.yul\":985:991   */\n      dup3\n        /* \"#utility.yul\":974:983   */\n      dup6\n        /* \"#utility.yul\":970:992   */\n      add\n        /* \"#utility.yul\":949:1002   */\n      tag_74\n      jump\t// in\n    tag_122:\n        /* \"#utility.yul\":939:1002   */\n      swap2\n      pop\n        /* \"#utility.yul\":895:1012   */\n      pop\n        /* \"#utility.yul\":690:1019   */\n      swap3\n      swap2\n      pop\n      pop\n      jump\t// out\n        /* \"#utility.yul\":1025:1124   */\n    tag_75:\n        /* \"#utility.yul\":1077:1083   */\n      0x00\n        /* \"#utility.yul\":1111:1116   */\n      dup2\n        /* \"#utility.yul\":1105:1117   */\n      mload\n        /* \"#utility.yul\":1095:1117   */\n      swap1\n      pop\n        /* \"#utility.yul\":1025:1124   */\n      swap2\n      swap1\n      pop\n      jump\t// out\n        /* \"#utility.yul\":1130:1299   */\n    tag_76:\n        /* \"#utility.yul\":1214:1225   */\n      0x00\n        /* \"#utility.yul\":1248:1254   */\n      dup3\n        /* \"#utility.yul\":1243:1246   */\n      dup3\n        /* \"#utility.yul\":1236:1255   */\n      mstore\n        /* \"#utility.yul\":1288:1292   */\n      0x20\n        /* \"#utility.yul\":1283:1286   */\n      dup3\n        /* \"#utility.yul\":1279:1293   */\n      add\n        /* \"#utility.yul\":1264:1293   */\n      swap1\n      pop\n        /* \"#utility.yul\":1130:1299   */\n      swap3\n      swap2\n      pop\n      pop\n      jump\t// out\n        /* \"#utility.yul\":1305:1444   */\n    tag_77:\n        /* \"#utility.yul\":1394:1400   */\n      dup3\n        /* \"#utility.yul\":1389:1392   */\n      dup2\n        /* \"#utility.yul\":1384:1387   */\n      dup4\n        /* \"#utility.yul\":1378:1401   */\n      mcopy\n        /* \"#utility.yul\":1435:1436   */\n      0x00\n        /* \"#utility.yul\":1426:1432   */\n      dup4\n        /* \"#utility.yul\":1421:1424   */\n      dup4\n        /* \"#utility.yul\":1417:1433   */\n      add\n        /* \"#utility.yul\":1410:1437   */\n      mstore\n        /* \"#utility.yul\":1305:1444   */\n      pop\n      pop\n      pop\n      jump\t// out\n        /* \"#utility.yul\":1450:1552   */\n    tag_78:\n        /* \"#utility.yul\":1491:1497   */\n      0x00\n        /* \"#utility.yul\":1542:1544   */\n      0x1f\n        /* \"#utility.yul\":1538:1545   */\n      not\n        /* \"#utility.yul\":1533:1535   */\n      0x1f\n        /* \"#utility.yul\":1526:1531   */\n      dup4\n        /* \"#utility.yul\":1522:1536   */\n      add\n        /* \"#utility.yul\":1518:1546   */\n      and\n        /* \"#utility.yul\":1508:1546   */\n      swap1\n      pop\n        /* \"#utility.yul\":1450:1552   */\n      swap2\n      swap1\n      pop\n      jump\t// out\n        /* \"#utility.yul\":1558:1935   */\n    tag_79:\n        /* \"#utility.yul\":1646:1649   */\n      0x00\n        /* \"#utility.yul\":1674:1713   */\n      tag_128\n        /* \"#utility.yul\":1707:1712   */\n      dup3\n        /* \"#utility.yul\":1674:1713   */\n      tag_75\n      jump\t// in\n    tag_128:\n        /* \"#utility.yul\":1729:1800   */\n      tag_129\n        /* \"#utility.yul\":1793:1799   */\n      dup2\n        /* \"#utility.yul\":1788:1791   */\n      dup6\n        /* \"#utility.yul\":1729:1800   */\n      tag_76\n      jump\t// in\n    tag_129:\n        /* \"#utility.yul\":1722:1800   */\n      swap4\n      pop\n        /* \"#utility.yul\":1809:1874   */\n      tag_130\n        /* \"#utility.yul\":1867:1873   */\n      dup2\n        /* \"#utility.yul\":1862:1865   */\n      dup6\n        /* \"#utility.yul\":1855:1859   */\n      0x20\n        /* \"#utility.yul\":1848:1853   */\n      dup7\n        /* \"#utility.yul\":1844:1860   */\n      add\n        /* \"#utility.yul\":1809:1874   */\n      tag_77\n      jump\t// in\n    tag_130:\n        /* \"#utility.yul\":1899:1928   */\n      tag_131\n        /* \"#utility.yul\":1921:1927   */\n      dup2\n        /* \"#utility.yul\":1899:1928   */\n      tag_78\n      jump\t// in\n    tag_131:\n        /* \"#utility.yul\":1894:1897   */\n      dup5\n        /* \"#utility.yul\":1890:1929   */\n      add\n        /* \"#utility.yul\":1883:1929   */\n      swap2\n      pop\n        /* \"#utility.yul\":1650:1935   */\n      pop\n        /* \"#utility.yul\":1558:1935   */\n      swap3\n      swap2\n      pop\n      pop\n      jump\t// out\n        /* \"#utility.yul\":1941:2656   */\n    tag_12:\n        /* \"#utility.yul\":2150:2154   */\n      0x00\n        /* \"#utility.yul\":2188:2190   */\n      0x60\n        /* \"#utility.yul\":2177:2186   */\n      dup3\n        /* \"#utility.yul\":2173:2191   */\n      add\n        /* \"#utility.yul\":2165:2191   */\n      swap1\n      pop\n        /* \"#utility.yul\":2237:2246   */\n      dup2\n        /* \"#utility.yul\":2231:2235   */\n      dup2\n        /* \"#utility.yul\":2227:2247   */\n      sub\n        /* \"#utility.yul\":2223:2224   */\n      0x00\n        /* \"#utility.yul\":2212:2221   */\n      dup4\n        /* \"#utility.yul\":2208:2225   */\n      add\n        /* \"#utility.yul\":2201:2248   */\n      mstore\n        /* \"#utility.yul\":2265:2343   */\n      tag_133\n        /* \"#utility.yul\":2338:2342   */\n      dup2\n        /* \"#utility.yul\":2329:2335   */\n      dup7\n        /* \"#utility.yul\":2265:2343   */\n      tag_79\n      jump\t// in\n    tag_133:\n        /* \"#utility.yul\":2257:2343   */\n      swap1\n      pop\n        /* \"#utility.yul\":2390:2399   */\n      dup2\n        /* \"#utility.yul\":2384:2388   */\n      dup2\n        /* \"#utility.yul\":2380:2400   */\n      sub\n        /* \"#utility.yul\":2375:2377   */\n      0x20\n        /* \"#utility.yul\":2364:2373   */\n      dup4\n        /* \"#utility.yul\":2360:2378   */\n      add\n        /* \"#utility.yul\":2353:2401   */\n      mstore\n        /* \"#utility.yul\":2418:2496   */\n      tag_134\n        /* \"#utility.yul\":2491:2495   */\n      dup2\n        /* \"#utility.yul\":2482:2488   */\n      dup6\n        /* \"#utility.yul\":2418:2496   */\n      tag_79\n      jump\t// in\n    tag_134:\n        /* \"#utility.yul\":2410:2496   */\n      swap1\n      pop\n        /* \"#utility.yul\":2543:2552   */\n      dup2\n        /* \"#utility.yul\":2537:2541   */\n      dup2\n        /* \"#utility.yul\":2533:2553   */\n      sub\n        /* \"#utility.yul\":2528:2530   */\n      0x40\n        /* \"#utility.yul\":2517:2526   */\n      dup4\n        /* \"#utility.yul\":2513:2531   */\n      add\n        /* \"#utility.yul\":2506:2554   */\n      mstore\n        /* \"#utility.yul\":2571:2649   */\n      tag_135\n        /* \"#utility.yul\":2644:2648   */\n      dup2\n        /* \"#utility.yul\":2635:2641   */\n      dup5\n        /* \"#utility.yul\":2571:2649   */\n      tag_79\n      jump\t// in\n    tag_135:\n        /* \"#utility.yul\":2563:2649   */\n      swap1\n      pop\n        /* \"#utility.yul\":1941:2656   */\n      swap5\n      swap4\n      pop\n      pop\n      pop\n      pop\n      jump\t// out\n        /* \"#utility.yul\":2662:2780   */\n    tag_80:\n        /* \"#utility.yul\":2749:2773   */\n      tag_137\n        /* \"#utility.yul\":2767:2772   */\n      dup2\n        /* \"#utility.yul\":2749:2773   */\n      tag_72\n      jump\t// in\n    tag_137:\n        /* \"#utility.yul\":2744:2747   */\n      dup3\n        /* \"#utility.yul\":2737:2774   */\n      mstore\n        /* \"#utility.yul\":2662:2780   */\n      pop\n      pop\n      jump\t// out\n        /* \"#utility.yul\":2786:3008   */\n    tag_20:\n        /* \"#utility.yul\":2879:2883   */\n      0x00\n        /* \"#utility.yul\":2917:2919   */\n      0x20\n        /* \"#utility.yul\":2906:2915   */\n      dup3\n        /* \"#utility.yul\":2902:2920   */\n      add\n        /* \"#utility.yul\":2894:2920   */\n      swap1\n      pop\n        /* \"#utility.yul\":2930:3001   */\n      tag_139\n        /* \"#utility.yul\":2998:2999   */\n      0x00\n        /* \"#utility.yul\":2987:2996   */\n      dup4\n        /* \"#utility.yul\":2983:3000   */\n      add\n        /* \"#utility.yul\":2974:2980   */\n      dup5\n        /* \"#utility.yul\":2930:3001   */\n      tag_80\n      jump\t// in\n    tag_139:\n        /* \"#utility.yul\":2786:3008   */\n      swap3\n      swap2\n      pop\n      pop\n      jump\t// out\n        /* \"#utility.yul\":3014:3131   */\n    tag_81:\n        /* \"#utility.yul\":3123:3124   */\n      0x00\n        /* \"#utility.yul\":3120:3121   */\n      dup1\n        /* \"#utility.yul\":3113:3125   */\n      revert\n        /* \"#utility.yul\":3137:3254   */\n    tag_82:\n        /* \"#utility.yul\":3246:3247   */\n      0x00\n        /* \"#utility.yul\":3243:3244   */\n      dup1\n        /* \"#utility.yul\":3236:3248   */\n      revert\n        /* \"#utility.yul\":3260:3440   */\n    tag_83:\n        /* \"#utility.yul\":3308:3385   */\n      0x4e487b7100000000000000000000000000000000000000000000000000000000\n        /* \"#utility.yul\":3305:3306   */\n      0x00\n        /* \"#utility.yul\":3298:3386   */\n      mstore\n        /* \"#utility.yul\":3405:3409   */\n      0x41\n        /* \"#utility.yul\":3402:3403   */\n      0x04\n        /* \"#utility.yul\":3395:3410   */\n      mstore\n        /* \"#utility.yul\":3429:3433   */\n      0x24\n        /* \"#utility.yul\":3426:3427   */\n      0x00\n        /* \"#utility.yul\":3419:3434   */\n      revert\n        /* \"#utility.yul\":3446:3727   */\n    tag_84:\n        /* \"#utility.yul\":3529:3556   */\n      tag_144\n        /* \"#utility.yul\":3551:3555   */\n      dup3\n        /* \"#utility.yul\":3529:3556   */\n      tag_78\n      jump\t// in\n    tag_144:\n        /* \"#utility.yul\":3521:3527   */\n      dup2\n        /* \"#utility.yul\":3517:3557   */\n      add\n        /* \"#utility.yul\":3659:3665   */\n      dup2\n        /* \"#utility.yul\":3647:3657   */\n      dup2\n        /* \"#utility.yul\":3644:3666   */\n      lt\n        /* \"#utility.yul\":3623:3641   */\n      0xffffffffffffffff\n        /* \"#utility.yul\":3611:3621   */\n      dup3\n        /* \"#utility.yul\":3608:3642   */\n      gt\n        /* \"#utility.yul\":3605:3667   */\n      or\n        /* \"#utility.yul\":3602:3690   */\n      iszero\n      tag_145\n      jumpi\n        /* \"#utility.yul\":3670:3688   */\n      tag_146\n      tag_83\n      jump\t// in\n    tag_146:\n        /* \"#utility.yul\":3602:3690   */\n    tag_145:\n        /* \"#utility.yul\":3710:3720   */\n      dup1\n        /* \"#utility.yul\":3706:3708   */\n      0x40\n        /* \"#utility.yul\":3699:3721   */\n      mstore\n        /* \"#utility.yul\":3489:3727   */\n      pop\n        /* \"#utility.yul\":3446:3727   */\n      pop\n      pop\n      jump\t// out\n        /* \"#utility.yul\":3733:3862   */\n    tag_85:\n        /* \"#utility.yul\":3767:3773   */\n      0x00\n        /* \"#utility.yul\":3794:3814   */\n      tag_148\n      tag_69\n      jump\t// in\n    tag_148:\n        /* \"#utility.yul\":3784:3814   */\n      swap1\n      pop\n        /* \"#utility.yul\":3823:3856   */\n      tag_149\n        /* \"#utility.yul\":3851:3855   */\n      dup3\n        /* \"#utility.yul\":3843:3849   */\n      dup3\n        /* \"#utility.yul\":3823:3856   */\n      tag_84\n      jump\t// in\n    tag_149:\n        /* \"#utility.yul\":3733:3862   */\n      swap2\n      swap1\n      pop\n      jump\t// out\n        /* \"#utility.yul\":3868:4176   */\n    tag_86:\n        /* \"#utility.yul\":3930:3934   */\n      0x00\n        /* \"#utility.yul\":4020:4038   */\n      0xffffffffffffffff\n        /* \"#utility.yul\":4012:4018   */\n      dup3\n        /* \"#utility.yul\":4009:4039   */\n      gt\n        /* \"#utility.yul\":4006:4062   */\n      iszero\n      tag_151\n      jumpi\n        /* \"#utility.yul\":4042:4060   */\n      tag_152\n      tag_83\n      jump\t// in\n    tag_152:\n        /* \"#utility.yul\":4006:4062   */\n    tag_151:\n        /* \"#utility.yul\":4080:4109   */\n      tag_153\n        /* \"#utility.yul\":4102:4108   */\n      dup3\n        /* \"#utility.yul\":4080:4109   */\n      tag_78\n      jump\t// in\n    tag_153:\n        /* \"#utility.yul\":4072:4109   */\n      swap1\n      pop\n        /* \"#utility.yul\":4164:4168   */\n      0x20\n        /* \"#utility.yul\":4158:4162   */\n      dup2\n        /* \"#utility.yul\":4154:4169   */\n      add\n        /* \"#utility.yul\":4146:4169   */\n      swap1\n      pop\n        /* \"#utility.yul\":3868:4176   */\n      swap2\n      swap1\n      pop\n      jump\t// out\n        /* \"#utility.yul\":4182:4330   */\n    tag_87:\n        /* \"#utility.yul\":4280:4286   */\n      dup3\n        /* \"#utility.yul\":4275:4278   */\n      dup2\n        /* \"#utility.yul\":4270:4273   */\n      dup4\n        /* \"#utility.yul\":4257:4287   */\n      calldatacopy\n        /* \"#utility.yul\":4321:4322   */\n      0x00\n        /* \"#utility.yul\":4312:4318   */\n      dup4\n        /* \"#utility.yul\":4307:4310   */\n      dup4\n        /* \"#utility.yul\":4303:4319   */\n      add\n        /* \"#utility.yul\":4296:4323   */\n      mstore\n        /* \"#utility.yul\":4182:4330   */\n      pop\n      pop\n      pop\n      jump\t// out\n        /* \"#utility.yul\":4336:4761   */\n    tag_88:\n        /* \"#utility.yul\":4414:4419   */\n      0x00\n        /* \"#utility.yul\":4439:4505   */\n      tag_156\n        /* \"#utility.yul\":4455:4504   */\n      tag_157\n        /* \"#utility.yul\":4497:4503   */\n      dup5\n        /* \"#utility.yul\":4455:4504   */\n      tag_86\n      jump\t// in\n    tag_157:\n        /* \"#utility.yul\":4439:4505   */\n      tag_85\n      jump\t// in\n    tag_156:\n        /* \"#utility.yul\":4430:4505   */\n      swap1\n      pop\n        /* \"#utility.yul\":4528:4534   */\n      dup3\n        /* \"#utility.yul\":4521:4526   */\n      dup2\n        /* \"#utility.yul\":4514:4535   */\n      mstore\n        /* \"#utility.yul\":4566:4570   */\n      0x20\n        /* \"#utility.yul\":4559:4564   */\n      dup2\n        /* \"#utility.yul\":4555:4571   */\n      add\n        /* \"#utility.yul\":4604:4607   */\n      dup5\n        /* \"#utility.yul\":4595:4601   */\n      dup5\n        /* \"#utility.yul\":4590:4593   */\n      dup5\n        /* \"#utility.yul\":4586:4602   */\n      add\n        /* \"#utility.yul\":4583:4608   */\n      gt\n        /* \"#utility.yul\":4580:4692   */\n      iszero\n      tag_158\n      jumpi\n        /* \"#utility.yul\":4611:4690   */\n      tag_159\n      tag_82\n      jump\t// in\n    tag_159:\n        /* \"#utility.yul\":4580:4692   */\n    tag_158:\n        /* \"#utility.yul\":4701:4755   */\n      tag_160\n        /* \"#utility.yul\":4748:4754   */\n      dup5\n        /* \"#utility.yul\":4743:4746   */\n      dup3\n        /* \"#utility.yul\":4738:4741   */\n      dup6\n        /* \"#utility.yul\":4701:4755   */\n      tag_87\n      jump\t// in\n    tag_160:\n        /* \"#utility.yul\":4420:4761   */\n      pop\n        /* \"#utility.yul\":4336:4761   */\n      swap4\n      swap3\n      pop\n      pop\n      pop\n      jump\t// out\n        /* \"#utility.yul\":4781:5121   */\n    tag_89:\n        /* \"#utility.yul\":4837:4842   */\n      0x00\n        /* \"#utility.yul\":4886:4889   */\n      dup3\n        /* \"#utility.yul\":4879:4883   */\n      0x1f\n        /* \"#utility.yul\":4871:4877   */\n      dup4\n        /* \"#utility.yul\":4867:4884   */\n      add\n        /* \"#utility.yul\":4863:4890   */\n      slt\n        /* \"#utility.yul\":4853:4975   */\n      tag_162\n      jumpi\n        /* \"#utility.yul\":4894:4973   */\n      tag_163\n      tag_81\n      jump\t// in\n    tag_163:\n        /* \"#utility.yul\":4853:4975   */\n    tag_162:\n        /* \"#utility.yul\":5011:5017   */\n      dup2\n        /* \"#utility.yul\":4998:5018   */\n      calldataload\n        /* \"#utility.yul\":5036:5115   */\n      tag_164\n        /* \"#utility.yul\":5111:5114   */\n      dup5\n        /* \"#utility.yul\":5103:5109   */\n      dup3\n        /* \"#utility.yul\":5096:5100   */\n      0x20\n        /* \"#utility.yul\":5088:5094   */\n      dup7\n        /* \"#utility.yul\":5084:5101   */\n      add\n        /* \"#utility.yul\":5036:5115   */\n      tag_88\n      jump\t// in\n    tag_164:\n        /* \"#utility.yul\":5027:5115   */\n      swap2\n      pop\n        /* \"#utility.yul\":4843:5121   */\n      pop\n        /* \"#utility.yul\":4781:5121   */\n      swap3\n      swap2\n      pop\n      pop\n      jump\t// out\n        /* \"#utility.yul\":5127:6286   */\n    tag_23:\n        /* \"#utility.yul\":5234:5240   */\n      0x00\n        /* \"#utility.yul\":5242:5248   */\n      dup1\n        /* \"#utility.yul\":5250:5256   */\n      0x00\n        /* \"#utility.yul\":5299:5301   */\n      0x60\n        /* \"#utility.yul\":5287:5296   */\n      dup5\n        /* \"#utility.yul\":5278:5285   */\n      dup7\n        /* \"#utility.yul\":5274:5297   */\n      sub\n        /* \"#utility.yul\":5270:5302   */\n      slt\n        /* \"#utility.yul\":5267:5386   */\n      iszero\n      tag_166\n      jumpi\n        /* \"#utility.yul\":5305:5384   */\n      tag_167\n      tag_70\n      jump\t// in\n    tag_167:\n        /* \"#utility.yul\":5267:5386   */\n    tag_166:\n        /* \"#utility.yul\":5453:5454   */\n      0x00\n        /* \"#utility.yul\":5442:5451   */\n      dup5\n        /* \"#utility.yul\":5438:5455   */\n      add\n        /* \"#utility.yul\":5425:5456   */\n      calldataload\n        /* \"#utility.yul\":5483:5501   */\n      0xffffffffffffffff\n        /* \"#utility.yul\":5475:5481   */\n      dup2\n        /* \"#utility.yul\":5472:5502   */\n      gt\n        /* \"#utility.yul\":5469:5586   */\n      iszero\n      tag_168\n      jumpi\n        /* \"#utility.yul\":5505:5584   */\n      tag_169\n      tag_71\n      jump\t// in\n    tag_169:\n        /* \"#utility.yul\":5469:5586   */\n    tag_168:\n        /* \"#utility.yul\":5610:5673   */\n      tag_170\n        /* \"#utility.yul\":5665:5672   */\n      dup7\n        /* \"#utility.yul\":5656:5662   */\n      dup3\n        /* \"#utility.yul\":5645:5654   */\n      dup8\n        /* \"#utility.yul\":5641:5663   */\n      add\n        /* \"#utility.yul\":5610:5673   */\n      tag_89\n      jump\t// in\n    tag_170:\n        /* \"#utility.yul\":5600:5673   */\n      swap4\n      pop\n        /* \"#utility.yul\":5396:5683   */\n      pop\n        /* \"#utility.yul\":5750:5752   */\n      0x20\n        /* \"#utility.yul\":5739:5748   */\n      dup5\n        /* \"#utility.yul\":5735:5753   */\n      add\n        /* \"#utility.yul\":5722:5754   */\n      calldataload\n        /* \"#utility.yul\":5781:5799   */\n      0xffffffffffffffff\n        /* \"#utility.yul\":5773:5779   */\n      dup2\n        /* \"#utility.yul\":5770:5800   */\n      gt\n        /* \"#utility.yul\":5767:5884   */\n      iszero\n      tag_171\n      jumpi\n        /* \"#utility.yul\":5803:5882   */\n      tag_172\n      tag_71\n      jump\t// in\n    tag_172:\n        /* \"#utility.yul\":5767:5884   */\n    tag_171:\n        /* \"#utility.yul\":5908:5971   */\n      tag_173\n        /* \"#utility.yul\":5963:5970   */\n      dup7\n        /* \"#utility.yul\":5954:5960   */\n      dup3\n        /* \"#utility.yul\":5943:5952   */\n      dup8\n        /* \"#utility.yul\":5939:5961   */\n      add\n        /* \"#utility.yul\":5908:5971   */\n      tag_89\n      jump\t// in\n    tag_173:\n        /* \"#utility.yul\":5898:5971   */\n      swap3\n      pop\n        /* \"#utility.yul\":5693:5981   */\n      pop\n        /* \"#utility.yul\":6048:6050   */\n      0x40\n        /* \"#utility.yul\":6037:6046   */\n      dup5\n        /* \"#utility.yul\":6033:6051   */\n      add\n        /* \"#utility.yul\":6020:6052   */\n      calldataload\n        /* \"#utility.yul\":6079:6097   */\n      0xffffffffffffffff\n        /* \"#utility.yul\":6071:6077   */\n      dup2\n        /* \"#utility.yul\":6068:6098   */\n      gt\n        /* \"#utility.yul\":6065:6182   */\n      iszero\n      tag_174\n      jumpi\n        /* \"#utility.yul\":6101:6180   */\n      tag_175\n      tag_71\n      jump\t// in\n    tag_175:\n        /* \"#utility.yul\":6065:6182   */\n    tag_174:\n        /* \"#utility.yul\":6206:6269   */\n      tag_176\n        /* \"#utility.yul\":6261:6268   */\n      dup7\n        /* \"#utility.yul\":6252:6258   */\n      dup3\n        /* \"#utility.yul\":6241:6250   */\n      dup8\n        /* \"#utility.yul\":6237:6259   */\n      add\n        /* \"#utility.yul\":6206:6269   */\n      tag_89\n      jump\t// in\n    tag_176:\n        /* \"#utility.yul\":6196:6269   */\n      swap2\n      pop\n        /* \"#utility.yul\":5991:6279   */\n      pop\n        /* \"#utility.yul\":5127:6286   */\n      swap3\n      pop\n      swap3\n      pop\n      swap3\n      jump\t// out\n        /* \"#utility.yul\":6292:6458   */\n    tag_90:\n        /* \"#utility.yul\":6432:6450   */\n      0x496e76616c696420696d61676520494400000000000000000000000000000000\n        /* \"#utility.yul\":6428:6429   */\n      0x00\n        /* \"#utility.yul\":6420:6426   */\n      dup3\n        /* \"#utility.yul\":6416:6430   */\n      add\n        /* \"#utility.yul\":6409:6451   */\n      mstore\n        /* \"#utility.yul\":6292:6458   */\n      pop\n      jump\t// out\n        /* \"#utility.yul\":6464:6830   */\n    tag_91:\n        /* \"#utility.yul\":6606:6609   */\n      0x00\n        /* \"#utility.yul\":6627:6694   */\n      tag_179\n        /* \"#utility.yul\":6691:6693   */\n      0x10\n        /* \"#utility.yul\":6686:6689   */\n      dup4\n        /* \"#utility.yul\":6627:6694   */\n      tag_76\n      jump\t// in\n    tag_179:\n        /* \"#utility.yul\":6620:6694   */\n      swap2\n      pop\n        /* \"#utility.yul\":6703:6796   */\n      tag_180\n        /* \"#utility.yul\":6792:6795   */\n      dup3\n        /* \"#utility.yul\":6703:6796   */\n      tag_90\n      jump\t// in\n    tag_180:\n        /* \"#utility.yul\":6821:6823   */\n      0x20\n        /* \"#utility.yul\":6816:6819   */\n      dup3\n        /* \"#utility.yul\":6812:6824   */\n      add\n        /* \"#utility.yul\":6805:6824   */\n      swap1\n      pop\n        /* \"#utility.yul\":6464:6830   */\n      swap2\n      swap1\n      pop\n      jump\t// out\n        /* \"#utility.yul\":6836:7255   */\n    tag_29:\n        /* \"#utility.yul\":7002:7006   */\n      0x00\n        /* \"#utility.yul\":7040:7042   */\n      0x20\n        /* \"#utility.yul\":7029:7038   */\n      dup3\n        /* \"#utility.yul\":7025:7043   */\n      add\n        /* \"#utility.yul\":7017:7043   */\n      swap1\n      pop\n        /* \"#utility.yul\":7089:7098   */\n      dup2\n        /* \"#utility.yul\":7083:7087   */\n      dup2\n        /* \"#utility.yul\":7079:7099   */\n      sub\n        /* \"#utility.yul\":7075:7076   */\n      0x00\n        /* \"#utility.yul\":7064:7073   */\n      dup4\n        /* \"#utility.yul\":7060:7077   */\n      add\n        /* \"#utility.yul\":7053:7100   */\n      mstore\n        /* \"#utility.yul\":7117:7248   */\n      tag_182\n        /* \"#utility.yul\":7243:7247   */\n      dup2\n        /* \"#utility.yul\":7117:7248   */\n      tag_91\n      jump\t// in\n    tag_182:\n        /* \"#utility.yul\":7109:7248   */\n      swap1\n      pop\n        /* \"#utility.yul\":6836:7255   */\n      swap2\n      swap1\n      pop\n      jump\t// out\n        /* \"#utility.yul\":7261:7441   */\n    tag_92:\n        /* \"#utility.yul\":7309:7386   */\n      0x4e487b7100000000000000000000000000000000000000000000000000000000\n        /* \"#utility.yul\":7306:7307   */\n      0x00\n        /* \"#utility.yul\":7299:7387   */\n      mstore\n        /* \"#utility.yul\":7406:7410   */\n      0x22\n        /* \"#utility.yul\":7403:7404   */\n      0x04\n        /* \"#utility.yul\":7396:7411   */\n      mstore\n        /* \"#utility.yul\":7430:7434   */\n      0x24\n        /* \"#utility.yul\":7427:7428   */\n      0x00\n        /* \"#utility.yul\":7420:7435   */\n      revert\n        /* \"#utility.yul\":7447:7767   */\n    tag_31:\n        /* \"#utility.yul\":7491:7497   */\n      0x00\n        /* \"#utility.yul\":7528:7529   */\n      0x02\n        /* \"#utility.yul\":7522:7526   */\n      dup3\n        /* \"#utility.yul\":7518:7530   */\n      div\n        /* \"#utility.yul\":7508:7530   */\n      swap1\n      pop\n        /* \"#utility.yul\":7575:7576   */\n      0x01\n        /* \"#utility.yul\":7569:7573   */\n      dup3\n        /* \"#utility.yul\":7565:7577   */\n      and\n        /* \"#utility.yul\":7596:7614   */\n      dup1\n        /* \"#utility.yul\":7586:7667   */\n      tag_185\n      jumpi\n        /* \"#utility.yul\":7652:7656   */\n      0x7f\n        /* \"#utility.yul\":7644:7650   */\n      dup3\n        /* \"#utility.yul\":7640:7657   */\n      and\n        /* \"#utility.yul\":7630:7657   */\n      swap2\n      pop\n        /* \"#utility.yul\":7586:7667   */\n    tag_185:\n        /* \"#utility.yul\":7714:7716   */\n      0x20\n        /* \"#utility.yul\":7706:7712   */\n      dup3\n        /* \"#utility.yul\":7703:7717   */\n      lt\n        /* \"#utility.yul\":7683:7701   */\n      dup2\n        /* \"#utility.yul\":7680:7718   */\n      sub\n        /* \"#utility.yul\":7677:7761   */\n      tag_186\n      jumpi\n        /* \"#utility.yul\":7733:7751   */\n      tag_187\n      tag_92\n      jump\t// in\n    tag_187:\n        /* \"#utility.yul\":7677:7761   */\n    tag_186:\n        /* \"#utility.yul\":7498:7767   */\n      pop\n        /* \"#utility.yul\":7447:7767   */\n      swap2\n      swap1\n      pop\n      jump\t// out\n        /* \"#utility.yul\":7773:7953   */\n    tag_93:\n        /* \"#utility.yul\":7821:7898   */\n      0x4e487b7100000000000000000000000000000000000000000000000000000000\n        /* \"#utility.yul\":7818:7819   */\n      0x00\n        /* \"#utility.yul\":7811:7899   */\n      mstore\n        /* \"#utility.yul\":7918:7922   */\n      0x11\n        /* \"#utility.yul\":7915:7916   */\n      0x04\n        /* \"#utility.yul\":7908:7923   */\n      mstore\n        /* \"#utility.yul\":7942:7946   */\n      0x24\n        /* \"#utility.yul\":7939:7940   */\n      0x00\n        /* \"#utility.yul\":7932:7947   */\n      revert\n        /* \"#utility.yul\":7959:8192   */\n    tag_63:\n        /* \"#utility.yul\":7998:8001   */\n      0x00\n        /* \"#utility.yul\":8021:8045   */\n      tag_190\n        /* \"#utility.yul\":8039:8044   */\n      dup3\n        /* \"#utility.yul\":8021:8045   */\n      tag_72\n      jump\t// in\n    tag_190:\n        /* \"#utility.yul\":8012:8045   */\n      swap2\n      pop\n        /* \"#utility.yul\":8067:8133   */\n      0xffffffffffffffffffffffffffffffffffffffffffffffffffffffffffffffff\n        /* \"#utility.yul\":8060:8065   */\n      dup3\n        /* \"#utility.yul\":8057:8134   */\n      sub\n        /* \"#utility.yul\":8054:8157   */\n      tag_191\n      jumpi\n        /* \"#utility.yul\":8137:8155   */\n      tag_192\n      tag_93\n      jump\t// in\n    tag_192:\n        /* \"#utility.yul\":8054:8157   */\n    tag_191:\n        /* \"#utility.yul\":8184:8185   */\n      0x01\n        /* \"#utility.yul\":8177:8182   */\n      dup3\n        /* \"#utility.yul\":8173:8186   */\n      add\n        /* \"#utility.yul\":8166:8186   */\n      swap1\n      pop\n        /* \"#utility.yul\":7959:8192   */\n      swap2\n      swap1\n      pop\n      jump\t// out\n        /* \"#utility.yul\":8198:8339   */\n    tag_94:\n        /* \"#utility.yul\":8247:8251   */\n      0x00\n        /* \"#utility.yul\":8270:8273   */\n      dup2\n        /* \"#utility.yul\":8262:8273   */\n      swap1\n      pop\n        /* \"#utility.yul\":8293:8296   */\n      dup2\n        /* \"#utility.yul\":8290:8291   */\n      0x00\n        /* \"#utility.yul\":8283:8297   */\n      mstore\n        /* \"#utility.yul\":8327:8331   */\n      0x20\n        /* \"#utility.yul\":8324:8325   */\n      0x00\n        /* \"#utility.yul\":8314:8332   */\n      keccak256\n        /* \"#utility.yul\":8306:8332   */\n      swap1\n      pop\n        /* \"#utility.yul\":8198:8339   */\n      swap2\n      swap1\n      pop\n      jump\t// out\n        /* \"#utility.yul\":8345:8438   */\n    tag_95:\n        /* \"#utility.yul\":8382:8388   */\n      0x00\n        /* \"#utility.yul\":8429:8431   */\n      0x20\n        /* \"#utility.yul\":8424:8426   */\n      0x1f\n        /* \"#utility.yul\":8417:8422   */\n      dup4\n        /* \"#utility.yul\":8413:8427   */\n      add\n        /* \"#utility.yul\":8409:8432   */\n      div\n        /* \"#utility.yul\":8399:8432   */\n      swap1\n      pop\n        /* \"#utility.yul\":8345:8438   */\n      swap2\n      swap1\n      pop\n      jump\t// out\n        /* \"#utility.yul\":8444:8551   */\n    tag_96:\n        /* \"#utility.yul\":8488:8496   */\n      0x00\n        /* \"#utility.yul\":8538:8543   */\n      dup3\n        /* \"#utility.yul\":8532:8536   */\n      dup3\n        /* \"#utility.yul\":8528:8544   */\n      shl\n        /* \"#utility.yul\":8507:8544   */\n      swap1\n      pop\n        /* \"#utility.yul\":8444:8551   */\n      swap3\n      swap2\n      pop\n      pop\n      jump\t// out\n        /* \"#utility.yul\":8557:8950   */\n    tag_97:\n        /* \"#utility.yul\":8626:8632   */\n      0x00\n        /* \"#utility.yul\":8676:8677   */\n      0x08\n        /* \"#utility.yul\":8664:8674   */\n      dup4\n        /* \"#utility.yul\":8660:8678   */\n      mul\n        /* \"#utility.yul\":8699:8796   */\n      tag_197\n        /* \"#utility.yul\":8729:8795   */\n      0xffffffffffffffffffffffffffffffffffffffffffffffffffffffffffffffff\n        /* \"#utility.yul\":8718:8727   */\n      dup3\n        /* \"#utility.yul\":8699:8796   */\n      tag_96\n      jump\t// in\n    tag_197:\n        /* \"#utility.yul\":8817:8856   */\n      tag_198\n        /* \"#utility.yul\":8847:8855   */\n      dup7\n        /* \"#utility.yul\":8836:8845   */\n      dup4\n        /* \"#utility.yul\":8817:8856   */\n      tag_96\n      jump\t// in\n    tag_198:\n        /* \"#utility.yul\":8805:8856   */\n      swap6\n      pop\n        /* \"#utility.yul\":8889:8893   */\n      dup1\n        /* \"#utility.yul\":8885:8894   */\n      not\n        /* \"#utility.yul\":8878:8883   */\n      dup5\n        /* \"#utility.yul\":8874:8895   */\n      and\n        /* \"#utility.yul\":8865:8895   */\n      swap4\n      pop\n        /* \"#utility.yul\":8938:8942   */\n      dup1\n        /* \"#utility.yul\":8928:8936   */\n      dup7\n        /* \"#utility.yul\":8924:8943   */\n      and\n        /* \"#utility.yul\":8917:8922   */\n      dup5\n        /* \"#utility.yul\":8914:8944   */\n      or\n        /* \"#utility.yul\":8904:8944   */\n      swap3\n      pop\n        /* \"#utility.yul\":8633:8950   */\n      pop\n      pop\n        /* \"#utility.yul\":8557:8950   */\n      swap4\n      swap3\n      pop\n      pop\n      pop\n      jump\t// out\n        /* \"#utility.yul\":8956:9016   */\n    tag_98:\n        /* \"#utility.yul\":8984:8987   */\n      0x00\n        /* \"#utility.yul\":9005:9010   */\n      dup2\n        /* \"#utility.yul\":8998:9010   */\n      swap1\n      pop\n        /* \"#utility.yul\":8956:9016   */\n      swap2\n      swap1\n      pop\n      jump\t// out\n        /* \"#utility.yul\":9022:9164   */\n    tag_99:\n        /* \"#utility.yul\":9072:9081   */\n      0x00\n        /* \"#utility.yul\":9105:9158   */\n      tag_201\n        /* \"#utility.yul\":9123:9157   */\n      tag_202\n        /* \"#utility.yul\":9132:9156   */\n      tag_203\n        /* \"#utility.yul\":9150:9155   */\n      dup5\n        /* \"#utility.yul\":9132:9156   */\n      tag_72\n      jump\t// in\n    tag_203:\n        /* \"#utility.yul\":9123:9157   */\n      tag_98\n      jump\t// in\n    tag_202:\n        /* \"#utility.yul\":9105:9158   */\n      tag_72\n      jump\t// in\n    tag_201:\n        /* \"#utility.yul\":9092:9158   */\n      swap1\n      pop\n        /* \"#utility.yul\":9022:9164   */\n      swap2\n      swap1\n      pop\n      jump\t// out\n        /* \"#utility.yul\":9170:9245   */\n    tag_100:\n        /* \"#utility.yul\":9213:9216   */\n      0x00\n        /* \"#utility.yul\":9234:9239   */\n      dup2\n        /* \"#utility.yul\":9227:9239   */\n      swap1\n      pop\n        /* \"#utility.yul\":9170:9245   */\n      swap2\n      swap1\n      pop\n      jump\t// out\n        /* \"#utility.yul\":9251:9520   */\n    tag_101:\n        /* \"#utility.yul\":9361:9400   */\n      tag_206\n        /* \"#utility.yul\":9392:9399   */\n      dup4\n        /* \"#utility.yul\":9361:9400   */\n      tag_99\n      jump\t// in\n    tag_206:\n        /* \"#utility.yul\":9422:9513   */\n      tag_207\n        /* \"#utility.yul\":9471:9512   */\n      tag_208\n        /* \"#utility.yul\":9495:9511   */\n      dup3\n        /* \"#utility.yul\":9471:9512   */\n      tag_100\n      jump\t// in\n    tag_208:\n        /* \"#utility.yul\":9463:9469   */\n      dup5\n        /* \"#utility.yul\":9456:9460   */\n      dup5\n        /* \"#utility.yul\":9450:9461   */\n      sload\n        /* \"#utility.yul\":9422:9513   */\n      tag_97\n      jump\t// in\n    tag_207:\n        /* \"#utility.yul\":9416:9420   */\n      dup3\n        /* \"#utility.yul\":9409:9514   */\n      sstore\n        /* \"#utility.yul\":9327:9520   */\n      pop\n        /* \"#utility.yul\":9251:9520   */\n      pop\n      pop\n      pop\n      jump\t// out\n        /* \"#utility.yul\":9526:9599   */\n    tag_102:\n        /* \"#utility.yul\":9571:9574   */\n      0x00\n        /* \"#utility.yul\":9526:9599   */\n      swap1\n      jump\t// out\n        /* \"#utility.yul\":9605:9794   */\n    tag_103:\n        /* \"#utility.yul\":9682:9714   */\n      tag_211\n      tag_102\n      jump\t// in\n    tag_211:\n        /* \"#utility.yul\":9723:9788   */\n      tag_212\n        /* \"#utility.yul\":9781:9787   */\n      dup2\n        /* \"#utility.yul\":9773:9779   */\n      dup5\n        /* \"#utility.yul\":9767:9771   */\n      dup5\n        /* \"#utility.yul\":9723:9788   */\n      tag_101\n      jump\t// in\n    tag_212:\n        /* \"#utility.yul\":9658:9794   */\n      pop\n        /* \"#utility.yul\":9605:9794   */\n      pop\n      pop\n      jump\t// out\n        /* \"#utility.yul\":9800:9986   */\n    tag_104:\n        /* \"#utility.yul\":9860:9980   */\n    tag_214:\n        /* \"#utility.yul\":9877:9880   */\n      dup2\n        /* \"#utility.yul\":9870:9875   */\n      dup2\n        /* \"#utility.yul\":9867:9881   */\n      lt\n        /* \"#utility.yul\":9860:9980   */\n      iszero\n      tag_216\n      jumpi\n        /* \"#utility.yul\":9931:9970   */\n      tag_217\n        /* \"#utility.yul\":9968:9969   */\n      0x00\n        /* \"#utility.yul\":9961:9966   */\n      dup3\n        /* \"#utility.yul\":9931:9970   */\n      tag_103\n      jump\t// in\n    tag_217:\n        /* \"#utility.yul\":9904:9905   */\n      0x01\n        /* \"#utility.yul\":9897:9902   */\n      dup2\n        /* \"#utility.yul\":9893:9906   */\n      add\n        /* \"#utility.yul\":9884:9906   */\n      swap1\n      pop\n        /* \"#utility.yul\":9860:9980   */\n      jump(tag_214)\n    tag_216:\n        /* \"#utility.yul\":9800:9986   */\n      pop\n      pop\n      jump\t// out\n        /* \"#utility.yul\":9992:10535   */\n    tag_105:\n        /* \"#utility.yul\":10093:10095   */\n      0x1f\n        /* \"#utility.yul\":10088:10091   */\n      dup3\n        /* \"#utility.yul\":10085:10096   */\n      gt\n        /* \"#utility.yul\":10082:10528   */\n      iszero\n      tag_219\n      jumpi\n        /* \"#utility.yul\":10127:10165   */\n      tag_220\n        /* \"#utility.yul\":10159:10164   */\n      dup2\n        /* \"#utility.yul\":10127:10165   */\n      tag_94\n      jump\t// in\n    tag_220:\n        /* \"#utility.yul\":10211:10240   */\n      tag_221\n        /* \"#utility.yul\":10229:10239   */\n      dup5\n        /* \"#utility.yul\":10211:10240   */\n      tag_95\n      jump\t// in\n    tag_221:\n        /* \"#utility.yul\":10201:10209   */\n      dup2\n        /* \"#utility.yul\":10197:10241   */\n      add\n        /* \"#utility.yul\":10394:10396   */\n      0x20\n        /* \"#utility.yul\":10382:10392   */\n      dup6\n        /* \"#utility.yul\":10379:10397   */\n      lt\n        /* \"#utility.yul\":10376:10425   */\n      iszero\n      tag_222\n      jumpi\n        /* \"#utility.yul\":10415:10423   */\n      dup2\n        /* \"#utility.yul\":10400:10423   */\n      swap1\n      pop\n        /* \"#utility.yul\":10376:10425   */\n    tag_222:\n        /* \"#utility.yul\":10438:10518   */\n      tag_223\n        /* \"#utility.yul\":10494:10516   */\n      tag_224\n        /* \"#utility.yul\":10512:10515   */\n      dup6\n        /* \"#utility.yul\":10494:10516   */\n      tag_95\n      jump\t// in\n    tag_224:\n        /* \"#utility.yul\":10484:10492   */\n      dup4\n        /* \"#utility.yul\":10480:10517   */\n      add\n        /* \"#utility.yul\":10467:10478   */\n      dup3\n        /* \"#utility.yul\":10438:10518   */\n      tag_104\n      jump\t// in\n    tag_223:\n        /* \"#utility.yul\":10097:10528   */\n      pop\n      pop\n        /* \"#utility.yul\":10082:10528   */\n    tag_219:\n        /* \"#utility.yul\":9992:10535   */\n      pop\n      pop\n      pop\n      jump\t// out\n        /* \"#utility.yul\":10541:10658   */\n    tag_106:\n        /* \"#utility.yul\":10595:10603   */\n      0x00\n        /* \"#utility.yul\":10645:10650   */\n      dup3\n        /* \"#utility.yul\":10639:10643   */\n      dup3\n        /* \"#utility.yul\":10635:10651   */\n      shr\n        /* \"#utility.yul\":10614:10651   */\n      swap1\n      pop\n        /* \"#utility.yul\":10541:10658   */\n      swap3\n      swap2\n      pop\n      pop\n      jump\t// out\n        /* \"#utility.yul\":10664:10833   */\n    tag_107:\n        /* \"#utility.yul\":10708:10714   */\n      0x00\n        /* \"#utility.yul\":10741:10792   */\n      tag_227\n        /* \"#utility.yul\":10789:10790   */\n      0x00\n        /* \"#utility.yul\":10785:10791   */\n      not\n        /* \"#utility.yul\":10777:10782   */\n      dup5\n        /* \"#utility.yul\":10774:10775   */\n      0x08\n        /* \"#utility.yul\":10770:10783   */\n      mul\n        /* \"#utility.yul\":10741:10792   */\n      tag_106\n      jump\t// in\n    tag_227:\n        /* \"#utility.yul\":10737:10793   */\n      not\n        /* \"#utility.yul\":10822:10826   */\n      dup1\n        /* \"#utility.yul\":10816:10820   */\n      dup4\n        /* \"#utility.yul\":10812:10827   */\n      and\n        /* \"#utility.yul\":10802:10827   */\n      swap2\n      pop\n        /* \"#utility.yul\":10715:10833   */\n      pop\n        /* \"#utility.yul\":10664:10833   */\n      swap3\n      swap2\n      pop\n      pop\n      jump\t// out\n        /* \"#utility.yul\":10838:11133   */\n    tag_108:\n        /* \"#utility.yul\":10914:10918   */\n      0x00\n        /* \"#utility.yul\":11060:11089   */\n      tag_229\n        /* \"#utility.yul\":11085:11088   */\n      dup4\n        /* \"#utility.yul\":11079:11083   */\n      dup4\n        /* \"#utility.yul\":11060:11089   */\n      tag_107\n      jump\t// in\n    tag_229:\n        /* \"#utility.yul\":11052:11089   */\n      swap2\n      pop\n        /* \"#utility.yul\":11122:11125   */\n      dup3\n        /* \"#utility.yul\":11119:11120   */\n      0x02\n        /* \"#utility.yul\":11115:11126   */\n      mul\n        /* \"#utility.yul\":11109:11113   */\n      dup3\n        /* \"#utility.yul\":11106:11127   */\n      or\n        /* \"#utility.yul\":11098:11127   */\n      swap1\n      pop\n        /* \"#utility.yul\":10838:11133   */\n      swap3\n      swap2\n      pop\n      pop\n      jump\t// out\n        /* \"#utility.yul\":11138:12533   */\n    tag_65:\n        /* \"#utility.yul\":11255:11292   */\n      tag_231\n        /* \"#utility.yul\":11288:11291   */\n      dup3\n        /* \"#utility.yul\":11255:11292   */\n      tag_75\n      jump\t// in\n    tag_231:\n        /* \"#utility.yul\":11357:11375   */\n      0xffffffffffffffff\n        /* \"#utility.yul\":11349:11355   */\n      dup2\n        /* \"#utility.yul\":11346:11376   */\n      gt\n        /* \"#utility.yul\":11343:11399   */\n      iszero\n      tag_232\n      jumpi\n        /* \"#utility.yul\":11379:11397   */\n      tag_233\n      tag_83\n      jump\t// in\n    tag_233:\n        /* \"#utility.yul\":11343:11399   */\n    tag_232:\n        /* \"#utility.yul\":11423:11461   */\n      tag_234\n        /* \"#utility.yul\":11455:11459   */\n      dup3\n        /* \"#utility.yul\":11449:11460   */\n      sload\n        /* \"#utility.yul\":11423:11461   */\n      tag_31\n      jump\t// in\n    tag_234:\n        /* \"#utility.yul\":11508:11575   */\n      tag_235\n        /* \"#utility.yul\":11568:11574   */\n      dup3\n        /* \"#utility.yul\":11560:11566   */\n      dup3\n        /* \"#utility.yul\":11554:11558   */\n      dup6\n        /* \"#utility.yul\":11508:11575   */\n      tag_105\n      jump\t// in\n    tag_235:\n        /* \"#utility.yul\":11602:11603   */\n      0x00\n        /* \"#utility.yul\":11626:11630   */\n      0x20\n        /* \"#utility.yul\":11613:11630   */\n      swap1\n      pop\n        /* \"#utility.yul\":11658:11660   */\n      0x1f\n        /* \"#utility.yul\":11650:11656   */\n      dup4\n        /* \"#utility.yul\":11647:11661   */\n      gt\n        /* \"#utility.yul\":11675:11676   */\n      0x01\n        /* \"#utility.yul\":11670:12288   */\n      dup2\n      eq\n      tag_237\n      jumpi\n        /* \"#utility.yul\":12332:12333   */\n      0x00\n        /* \"#utility.yul\":12349:12355   */\n      dup5\n        /* \"#utility.yul\":12346:12423   */\n      iszero\n      tag_238\n      jumpi\n        /* \"#utility.yul\":12398:12407   */\n      dup3\n        /* \"#utility.yul\":12393:12396   */\n      dup8\n        /* \"#utility.yul\":12389:12408   */\n      add\n        /* \"#utility.yul\":12383:12409   */\n      mload\n        /* \"#utility.yul\":12374:12409   */\n      swap1\n      pop\n        /* \"#utility.yul\":12346:12423   */\n    tag_238:\n        /* \"#utility.yul\":12449:12516   */\n      tag_239\n        /* \"#utility.yul\":12509:12515   */\n      dup6\n        /* \"#utility.yul\":12502:12507   */\n      dup3\n        /* \"#utility.yul\":12449:12516   */\n      tag_108\n      jump\t// in\n    tag_239:\n        /* \"#utility.yul\":12443:12447   */\n      dup7\n        /* \"#utility.yul\":12436:12517   */\n      sstore\n        /* \"#utility.yul\":12305:12527   */\n      pop\n        /* \"#utility.yul\":11640:12527   */\n      jump(tag_236)\n        /* \"#utility.yul\":11670:12288   */\n    tag_237:\n        /* \"#utility.yul\":11722:11726   */\n      0x1f\n        /* \"#utility.yul\":11718:11727   */\n      not\n        /* \"#utility.yul\":11710:11716   */\n      dup5\n        /* \"#utility.yul\":11706:11728   */\n      and\n        /* \"#utility.yul\":11756:11793   */\n      tag_240\n        /* \"#utility.yul\":11788:11792   */\n      dup7\n        /* \"#utility.yul\":11756:11793   */\n      tag_94\n      jump\t// in\n    tag_240:\n        /* \"#utility.yul\":11815:11816   */\n      0x00\n        /* \"#utility.yul\":11829:12037   */\n    tag_241:\n        /* \"#utility.yul\":11843:11850   */\n      dup3\n        /* \"#utility.yul\":11840:11841   */\n      dup2\n        /* \"#utility.yul\":11837:11851   */\n      lt\n        /* \"#utility.yul\":11829:12037   */\n      iszero\n      tag_243\n      jumpi\n        /* \"#utility.yul\":11922:11931   */\n      dup5\n        /* \"#utility.yul\":11917:11920   */\n      dup10\n        /* \"#utility.yul\":11913:11932   */\n      add\n        /* \"#utility.yul\":11907:11933   */\n      mload\n        /* \"#utility.yul\":11899:11905   */\n      dup3\n        /* \"#utility.yul\":11892:11934   */\n      sstore\n        /* \"#utility.yul\":11973:11974   */\n      0x01\n        /* \"#utility.yul\":11965:11971   */\n      dup3\n        /* \"#utility.yul\":11961:11975   */\n      add\n        /* \"#utility.yul\":11951:11975   */\n      swap2\n      pop\n        /* \"#utility.yul\":12020:12022   */\n      0x20\n        /* \"#utility.yul\":12009:12018   */\n      dup6\n        /* \"#utility.yul\":12005:12023   */\n      add\n        /* \"#utility.yul\":11992:12023   */\n      swap5\n      pop\n        /* \"#utility.yul\":11866:11870   */\n      0x20\n        /* \"#utility.yul\":11863:11864   */\n      dup2\n        /* \"#utility.yul\":11859:11871   */\n      add\n        /* \"#utility.yul\":11854:11871   */\n      swap1\n      pop\n        /* \"#utility.yul\":11829:12037   */\n      jump(tag_241)\n    tag_243:\n        /* \"#utility.yul\":12065:12071   */\n      dup7\n        /* \"#utility.yul\":12056:12063   */\n      dup4\n        /* \"#utility.yul\":12053:12072   */\n      lt\n        /* \"#utility.yul\":12050:12229   */\n      iszero\n      tag_244\n      jumpi\n        /* \"#utility.yul\":12123:12132   */\n      dup5\n        /* \"#utility.yul\":12118:12121   */\n      dup10\n        /* \"#utility.yul\":12114:12133   */\n      add\n        /* \"#utility.yul\":12108:12134   */\n      mload\n        /* \"#utility.yul\":12166:12214   */\n      tag_245\n        /* \"#utility.yul\":12208:12212   */\n      0x1f\n        /* \"#utility.yul\":12200:12206   */\n      dup10\n        /* \"#utility.yul\":12196:12213   */\n      and\n        /* \"#utility.yul\":12185:12194   */\n      dup3\n        /* \"#utility.yul\":12166:12214   */\n      tag_107\n      jump\t// in\n    tag_245:\n        /* \"#utility.yul\":12158:12164   */\n      dup4\n        /* \"#utility.yul\":12151:12215   */\n      sstore\n        /* \"#utility.yul\":12073:12229   */\n      pop\n        /* \"#utility.yul\":12050:12229   */\n    tag_244:\n        /* \"#utility.yul\":12275:12276   */\n      0x01\n        /* \"#utility.yul\":12271:12272   */\n      0x02\n        /* \"#utility.yul\":12263:12269   */\n      dup9\n        /* \"#utility.yul\":12259:12273   */\n      mul\n        /* \"#utility.yul\":12255:12277   */\n      add\n        /* \"#utility.yul\":12249:12253   */\n      dup9\n        /* \"#utility.yul\":12242:12278   */\n      sstore\n        /* \"#utility.yul\":11677:12288   */\n      pop\n      pop\n      pop\n        /* \"#utility.yul\":11640:12527   */\n    tag_236:\n      pop\n        /* \"#utility.yul\":11230:12533   */\n      pop\n      pop\n      pop\n        /* \"#utility.yul\":11138:12533   */\n      pop\n      pop\n      jump\t// out\n\n    auxdata: 0xa26469706673582212200e7a1a96f462700ceef2254535fbbb1caeee85a0b06133bbcf16a6fd7a3e6dc964736f6c634300081a0033\n}\n",
				"bytecode": {
					"linkReferences": {},
					"object": "6080604052348015600e575f80fd5b50610cad8061001c5f395ff3fe608060405234801561000f575f80fd5b506004361061004a575f3560e01c80632607aafa1461004e578063848564821461008057806392053b63146100b2578063ed840896146100d0575b5f80fd5b610068600480360381019061006391906105f5565b6100ec565b60405161007793929190610690565b60405180910390f35b61009a600480360381019061009591906105f5565b61032a565b6040516100a993929190610690565b60405180910390f35b6100ba6104e1565b6040516100c791906106e9565b60405180910390f35b6100ea60048036038101906100e5919061082e565b6104e7565b005b60608060605f8411801561010257506001548411155b610141576040517f08c379a00000000000000000000000000000000000000000000000000000000081526004016101389061091c565b60405180910390fd5b5f805f8681526020019081526020015f206040518060600160405290815f8201805461016c90610967565b80601f016020809104026020016040519081016040528092919081815260200182805461019890610967565b80156101e35780601f106101ba576101008083540402835291602001916101e3565b820191905f5260205f20905b8154815290600101906020018083116101c657829003601f168201915b505050505081526020016001820180546101fc90610967565b80601f016020809104026020016040519081016040528092919081815260200182805461022890610967565b80156102735780601f1061024a57610100808354040283529160200191610273565b820191905f5260205f20905b81548152906001019060200180831161025657829003601f168201915b5050505050815260200160028201805461028c90610967565b80601f01602080910402602001604051908101604052809291908181526020018280546102b890610967565b80156103035780601f106102da57610100808354040283529160200191610303565b820191905f5260205f20905b8154815290600101906020018083116102e657829003601f168201915b5050505050815250509050805f015181602001518260400151935093509350509193909250565b5f602052805f5260405f205f91509050805f01805461034890610967565b80601f016020809104026020016040519081016040528092919081815260200182805461037490610967565b80156103bf5780601f10610396576101008083540402835291602001916103bf565b820191905f5260205f20905b8154815290600101906020018083116103a257829003601f168201915b5050505050908060010180546103d490610967565b80601f016020809104026020016040519081016040528092919081815260200182805461040090610967565b801561044b5780601f106104225761010080835404028352916020019161044b565b820191905f5260205f20905b81548152906001019060200180831161042e57829003601f168201915b50505050509080600201805461046090610967565b80601f016020809104026020016040519081016040528092919081815260200182805461048c90610967565b80156104d75780601f106104ae576101008083540402835291602001916104d7565b820191905f5260205f20905b8154815290600101906020018083116104ba57829003601f168201915b5050505050905083565b60015481565b60015f8154809291906104f9906109c4565b91905055506040518060600160405280848152602001838152602001828152505f8060015481526020019081526020015f205f820151815f01908161053e9190610ba8565b5060208201518160010190816105549190610ba8565b50604082015181600201908161056a9190610ba8565b509050506001547f4dcc1ab7294bfba74f40cd7a0ef3409e1fec2ba6761321f919ecb4f3b5fe7a5e8484846040516105a493929190610690565b60405180910390a2505050565b5f604051905090565b5f80fd5b5f80fd5b5f819050919050565b6105d4816105c2565b81146105de575f80fd5b50565b5f813590506105ef816105cb565b92915050565b5f6020828403121561060a576106096105ba565b5b5f610617848285016105e1565b91505092915050565b5f81519050919050565b5f82825260208201905092915050565b8281835e5f83830152505050565b5f601f19601f8301169050919050565b5f61066282610620565b61066c818561062a565b935061067c81856020860161063a565b61068581610648565b840191505092915050565b5f6060820190508181035f8301526106a88186610658565b905081810360208301526106bc8185610658565b905081810360408301526106d08184610658565b9050949350505050565b6106e3816105c2565b82525050565b5f6020820190506106fc5f8301846106da565b92915050565b5f80fd5b5f80fd5b7f4e487b71000000000000000000000000000000000000000000000000000000005f52604160045260245ffd5b61074082610648565b810181811067ffffffffffffffff8211171561075f5761075e61070a565b5b80604052505050565b5f6107716105b1565b905061077d8282610737565b919050565b5f67ffffffffffffffff82111561079c5761079b61070a565b5b6107a582610648565b9050602081019050919050565b828183375f83830152505050565b5f6107d26107cd84610782565b610768565b9050828152602081018484840111156107ee576107ed610706565b5b6107f98482856107b2565b509392505050565b5f82601f83011261081557610814610702565b5b81356108258482602086016107c0565b91505092915050565b5f805f60608486031215610845576108446105ba565b5b5f84013567ffffffffffffffff811115610862576108616105be565b5b61086e86828701610801565b935050602084013567ffffffffffffffff81111561088f5761088e6105be565b5b61089b86828701610801565b925050604084013567ffffffffffffffff8111156108bc576108bb6105be565b5b6108c886828701610801565b9150509250925092565b7f496e76616c696420696d616765204944000000000000000000000000000000005f82015250565b5f61090660108361062a565b9150610911826108d2565b602082019050919050565b5f6020820190508181035f830152610933816108fa565b9050919050565b7f4e487b71000000000000000000000000000000000000000000000000000000005f52602260045260245ffd5b5f600282049050600182168061097e57607f821691505b6020821081036109915761099061093a565b5b50919050565b7f4e487b71000000000000000000000000000000000000000000000000000000005f52601160045260245ffd5b5f6109ce826105c2565b91507fffffffffffffffffffffffffffffffffffffffffffffffffffffffffffffffff8203610a00576109ff610997565b5b600182019050919050565b5f819050815f5260205f209050919050565b5f6020601f8301049050919050565b5f82821b905092915050565b5f60088302610a677fffffffffffffffffffffffffffffffffffffffffffffffffffffffffffffffff82610a2c565b610a718683610a2c565b95508019841693508086168417925050509392505050565b5f819050919050565b5f610aac610aa7610aa2846105c2565b610a89565b6105c2565b9050919050565b5f819050919050565b610ac583610a92565b610ad9610ad182610ab3565b848454610a38565b825550505050565b5f90565b610aed610ae1565b610af8818484610abc565b505050565b5b81811015610b1b57610b105f82610ae5565b600181019050610afe565b5050565b601f821115610b6057610b3181610a0b565b610b3a84610a1d565b81016020851015610b49578190505b610b5d610b5585610a1d565b830182610afd565b50505b505050565b5f82821c905092915050565b5f610b805f1984600802610b65565b1980831691505092915050565b5f610b988383610b71565b9150826002028217905092915050565b610bb182610620565b67ffffffffffffffff811115610bca57610bc961070a565b5b610bd48254610967565b610bdf828285610b1f565b5f60209050601f831160018114610c10575f8415610bfe578287015190505b610c088582610b8d565b865550610c6f565b601f198416610c1e86610a0b565b5f5b82811015610c4557848901518255600182019150602085019450602081019050610c20565b86831015610c625784890151610c5e601f891682610b71565b8355505b6001600288020188555050505b50505050505056fea26469706673582212200e7a1a96f462700ceef2254535fbbb1caeee85a0b06133bbcf16a6fd7a3e6dc964736f6c634300081a0033",
					"opcodes": "PUSH1 0x80 PUSH1 0x40 MSTORE CALLVALUE DUP1 ISZERO PUSH1 0xE JUMPI PUSH0 DUP1 REVERT JUMPDEST POP PUSH2 0xCAD DUP1 PUSH2 0x1C PUSH0 CODECOPY PUSH0 RETURN INVALID PUSH1 0x80 PUSH1 0x40 MSTORE CALLVALUE DUP1 ISZERO PUSH2 0xF JUMPI PUSH0 DUP1 REVERT JUMPDEST POP PUSH1 0x4 CALLDATASIZE LT PUSH2 0x4A JUMPI PUSH0 CALLDATALOAD PUSH1 0xE0 SHR DUP1 PUSH4 0x2607AAFA EQ PUSH2 0x4E JUMPI DUP1 PUSH4 0x84856482 EQ PUSH2 0x80 JUMPI DUP1 PUSH4 0x92053B63 EQ PUSH2 0xB2 JUMPI DUP1 PUSH4 0xED840896 EQ PUSH2 0xD0 JUMPI JUMPDEST PUSH0 DUP1 REVERT JUMPDEST PUSH2 0x68 PUSH1 0x4 DUP1 CALLDATASIZE SUB DUP2 ADD SWAP1 PUSH2 0x63 SWAP2 SWAP1 PUSH2 0x5F5 JUMP JUMPDEST PUSH2 0xEC JUMP JUMPDEST PUSH1 0x40 MLOAD PUSH2 0x77 SWAP4 SWAP3 SWAP2 SWAP1 PUSH2 0x690 JUMP JUMPDEST PUSH1 0x40 MLOAD DUP1 SWAP2 SUB SWAP1 RETURN JUMPDEST PUSH2 0x9A PUSH1 0x4 DUP1 CALLDATASIZE SUB DUP2 ADD SWAP1 PUSH2 0x95 SWAP2 SWAP1 PUSH2 0x5F5 JUMP JUMPDEST PUSH2 0x32A JUMP JUMPDEST PUSH1 0x40 MLOAD PUSH2 0xA9 SWAP4 SWAP3 SWAP2 SWAP1 PUSH2 0x690 JUMP JUMPDEST PUSH1 0x40 MLOAD DUP1 SWAP2 SUB SWAP1 RETURN JUMPDEST PUSH2 0xBA PUSH2 0x4E1 JUMP JUMPDEST PUSH1 0x40 MLOAD PUSH2 0xC7 SWAP2 SWAP1 PUSH2 0x6E9 JUMP JUMPDEST PUSH1 0x40 MLOAD DUP1 SWAP2 SUB SWAP1 RETURN JUMPDEST PUSH2 0xEA PUSH1 0x4 DUP1 CALLDATASIZE SUB DUP2 ADD SWAP1 PUSH2 0xE5 SWAP2 SWAP1 PUSH2 0x82E JUMP JUMPDEST PUSH2 0x4E7 JUMP JUMPDEST STOP JUMPDEST PUSH1 0x60 DUP1 PUSH1 0x60 PUSH0 DUP5 GT DUP1 ISZERO PUSH2 0x102 JUMPI POP PUSH1 0x1 SLOAD DUP5 GT ISZERO JUMPDEST PUSH2 0x141 JUMPI PUSH1 0x40 MLOAD PUSH32 0x8C379A000000000000000000000000000000000000000000000000000000000 DUP2 MSTORE PUSH1 0x4 ADD PUSH2 0x138 SWAP1 PUSH2 0x91C JUMP JUMPDEST PUSH1 0x40 MLOAD DUP1 SWAP2 SUB SWAP1 REVERT JUMPDEST PUSH0 DUP1 PUSH0 DUP7 DUP2 MSTORE PUSH1 0x20 ADD SWAP1 DUP2 MSTORE PUSH1 0x20 ADD PUSH0 KECCAK256 PUSH1 0x40 MLOAD DUP1 PUSH1 0x60 ADD PUSH1 0x40 MSTORE SWAP1 DUP2 PUSH0 DUP3 ADD DUP1 SLOAD PUSH2 0x16C SWAP1 PUSH2 0x967 JUMP JUMPDEST DUP1 PUSH1 0x1F ADD PUSH1 0x20 DUP1 SWAP2 DIV MUL PUSH1 0x20 ADD PUSH1 0x40 MLOAD SWAP1 DUP2 ADD PUSH1 0x40 MSTORE DUP1 SWAP3 SWAP2 SWAP1 DUP2 DUP2 MSTORE PUSH1 0x20 ADD DUP3 DUP1 SLOAD PUSH2 0x198 SWAP1 PUSH2 0x967 JUMP JUMPDEST DUP1 ISZERO PUSH2 0x1E3 JUMPI DUP1 PUSH1 0x1F LT PUSH2 0x1BA JUMPI PUSH2 0x100 DUP1 DUP4 SLOAD DIV MUL DUP4 MSTORE SWAP2 PUSH1 0x20 ADD SWAP2 PUSH2 0x1E3 JUMP JUMPDEST DUP3 ADD SWAP2 SWAP1 PUSH0 MSTORE PUSH1 0x20 PUSH0 KECCAK256 SWAP1 JUMPDEST DUP2 SLOAD DUP2 MSTORE SWAP1 PUSH1 0x1 ADD SWAP1 PUSH1 0x20 ADD DUP1 DUP4 GT PUSH2 0x1C6 JUMPI DUP3 SWAP1 SUB PUSH1 0x1F AND DUP3 ADD SWAP2 JUMPDEST POP POP POP POP POP DUP2 MSTORE PUSH1 0x20 ADD PUSH1 0x1 DUP3 ADD DUP1 SLOAD PUSH2 0x1FC SWAP1 PUSH2 0x967 JUMP JUMPDEST DUP1 PUSH1 0x1F ADD PUSH1 0x20 DUP1 SWAP2 DIV MUL PUSH1 0x20 ADD PUSH1 0x40 MLOAD SWAP1 DUP2 ADD PUSH1 0x40 MSTORE DUP1 SWAP3 SWAP2 SWAP1 DUP2 DUP2 MSTORE PUSH1 0x20 ADD DUP3 DUP1 SLOAD PUSH2 0x228 SWAP1 PUSH2 0x967 JUMP JUMPDEST DUP1 ISZERO PUSH2 0x273 JUMPI DUP1 PUSH1 0x1F LT PUSH2 0x24A JUMPI PUSH2 0x100 DUP1 DUP4 SLOAD DIV MUL DUP4 MSTORE SWAP2 PUSH1 0x20 ADD SWAP2 PUSH2 0x273 JUMP JUMPDEST DUP3 ADD SWAP2 SWAP1 PUSH0 MSTORE PUSH1 0x20 PUSH0 KECCAK256 SWAP1 JUMPDEST DUP2 SLOAD DUP2 MSTORE SWAP1 PUSH1 0x1 ADD SWAP1 PUSH1 0x20 ADD DUP1 DUP4 GT PUSH2 0x256 JUMPI DUP3 SWAP1 SUB PUSH1 0x1F AND DUP3 ADD SWAP2 JUMPDEST POP POP POP POP POP DUP2 MSTORE PUSH1 0x20 ADD PUSH1 0x2 DUP3 ADD DUP1 SLOAD PUSH2 0x28C SWAP1 PUSH2 0x967 JUMP JUMPDEST DUP1 PUSH1 0x1F ADD PUSH1 0x20 DUP1 SWAP2 DIV MUL PUSH1 0x20 ADD PUSH1 0x40 MLOAD SWAP1 DUP2 ADD PUSH1 0x40 MSTORE DUP1 SWAP3 SWAP2 SWAP1 DUP2 DUP2 MSTORE PUSH1 0x20 ADD DUP3 DUP1 SLOAD PUSH2 0x2B8 SWAP1 PUSH2 0x967 JUMP JUMPDEST DUP1 ISZERO PUSH2 0x303 JUMPI DUP1 PUSH1 0x1F LT PUSH2 0x2DA JUMPI PUSH2 0x100 DUP1 DUP4 SLOAD DIV MUL DUP4 MSTORE SWAP2 PUSH1 0x20 ADD SWAP2 PUSH2 0x303 JUMP JUMPDEST DUP3 ADD SWAP2 SWAP1 PUSH0 MSTORE PUSH1 0x20 PUSH0 KECCAK256 SWAP1 JUMPDEST DUP2 SLOAD DUP2 MSTORE SWAP1 PUSH1 0x1 ADD SWAP1 PUSH1 0x20 ADD DUP1 DUP4 GT PUSH2 0x2E6 JUMPI DUP3 SWAP1 SUB PUSH1 0x1F AND DUP3 ADD SWAP2 JUMPDEST POP POP POP POP POP DUP2 MSTORE POP POP SWAP1 POP DUP1 PUSH0 ADD MLOAD DUP2 PUSH1 0x20 ADD MLOAD DUP3 PUSH1 0x40 ADD MLOAD SWAP4 POP SWAP4 POP SWAP4 POP POP SWAP2 SWAP4 SWAP1 SWAP3 POP JUMP JUMPDEST PUSH0 PUSH1 0x20 MSTORE DUP1 PUSH0 MSTORE PUSH1 0x40 PUSH0 KECCAK256 PUSH0 SWAP2 POP SWAP1 POP DUP1 PUSH0 ADD DUP1 SLOAD PUSH2 0x348 SWAP1 PUSH2 0x967 JUMP JUMPDEST DUP1 PUSH1 0x1F ADD PUSH1 0x20 DUP1 SWAP2 DIV MUL PUSH1 0x20 ADD PUSH1 0x40 MLOAD SWAP1 DUP2 ADD PUSH1 0x40 MSTORE DUP1 SWAP3 SWAP2 SWAP1 DUP2 DUP2 MSTORE PUSH1 0x20 ADD DUP3 DUP1 SLOAD PUSH2 0x374 SWAP1 PUSH2 0x967 JUMP JUMPDEST DUP1 ISZERO PUSH2 0x3BF JUMPI DUP1 PUSH1 0x1F LT PUSH2 0x396 JUMPI PUSH2 0x100 DUP1 DUP4 SLOAD DIV MUL DUP4 MSTORE SWAP2 PUSH1 0x20 ADD SWAP2 PUSH2 0x3BF JUMP JUMPDEST DUP3 ADD SWAP2 SWAP1 PUSH0 MSTORE PUSH1 0x20 PUSH0 KECCAK256 SWAP1 JUMPDEST DUP2 SLOAD DUP2 MSTORE SWAP1 PUSH1 0x1 ADD SWAP1 PUSH1 0x20 ADD DUP1 DUP4 GT PUSH2 0x3A2 JUMPI DUP3 SWAP1 SUB PUSH1 0x1F AND DUP3 ADD SWAP2 JUMPDEST POP POP POP POP POP SWAP1 DUP1 PUSH1 0x1 ADD DUP1 SLOAD PUSH2 0x3D4 SWAP1 PUSH2 0x967 JUMP JUMPDEST DUP1 PUSH1 0x1F ADD PUSH1 0x20 DUP1 SWAP2 DIV MUL PUSH1 0x20 ADD PUSH1 0x40 MLOAD SWAP1 DUP2 ADD PUSH1 0x40 MSTORE DUP1 SWAP3 SWAP2 SWAP1 DUP2 DUP2 MSTORE PUSH1 0x20 ADD DUP3 DUP1 SLOAD PUSH2 0x400 SWAP1 PUSH2 0x967 JUMP JUMPDEST DUP1 ISZERO PUSH2 0x44B JUMPI DUP1 PUSH1 0x1F LT PUSH2 0x422 JUMPI PUSH2 0x100 DUP1 DUP4 SLOAD DIV MUL DUP4 MSTORE SWAP2 PUSH1 0x20 ADD SWAP2 PUSH2 0x44B JUMP JUMPDEST DUP3 ADD SWAP2 SWAP1 PUSH0 MSTORE PUSH1 0x20 PUSH0 KECCAK256 SWAP1 JUMPDEST DUP2 SLOAD DUP2 MSTORE SWAP1 PUSH1 0x1 ADD SWAP1 PUSH1 0x20 ADD DUP1 DUP4 GT PUSH2 0x42E JUMPI DUP3 SWAP1 SUB PUSH1 0x1F AND DUP3 ADD SWAP2 JUMPDEST POP POP POP POP POP SWAP1 DUP1 PUSH1 0x2 ADD DUP1 SLOAD PUSH2 0x460 SWAP1 PUSH2 0x967 JUMP JUMPDEST DUP1 PUSH1 0x1F ADD PUSH1 0x20 DUP1 SWAP2 DIV MUL PUSH1 0x20 ADD PUSH1 0x40 MLOAD SWAP1 DUP2 ADD PUSH1 0x40 MSTORE DUP1 SWAP3 SWAP2 SWAP1 DUP2 DUP2 MSTORE PUSH1 0x20 ADD DUP3 DUP1 SLOAD PUSH2 0x48C SWAP1 PUSH2 0x967 JUMP JUMPDEST DUP1 ISZERO PUSH2 0x4D7 JUMPI DUP1 PUSH1 0x1F LT PUSH2 0x4AE JUMPI PUSH2 0x100 DUP1 DUP4 SLOAD DIV MUL DUP4 MSTORE SWAP2 PUSH1 0x20 ADD SWAP2 PUSH2 0x4D7 JUMP JUMPDEST DUP3 ADD SWAP2 SWAP1 PUSH0 MSTORE PUSH1 0x20 PUSH0 KECCAK256 SWAP1 JUMPDEST DUP2 SLOAD DUP2 MSTORE SWAP1 PUSH1 0x1 ADD SWAP1 PUSH1 0x20 ADD DUP1 DUP4 GT PUSH2 0x4BA JUMPI DUP3 SWAP1 SUB PUSH1 0x1F AND DUP3 ADD SWAP2 JUMPDEST POP POP POP POP POP SWAP1 POP DUP4 JUMP JUMPDEST PUSH1 0x1 SLOAD DUP2 JUMP JUMPDEST PUSH1 0x1 PUSH0 DUP2 SLOAD DUP1 SWAP3 SWAP2 SWAP1 PUSH2 0x4F9 SWAP1 PUSH2 0x9C4 JUMP JUMPDEST SWAP2 SWAP1 POP SSTORE POP PUSH1 0x40 MLOAD DUP1 PUSH1 0x60 ADD PUSH1 0x40 MSTORE DUP1 DUP5 DUP2 MSTORE PUSH1 0x20 ADD DUP4 DUP2 MSTORE PUSH1 0x20 ADD DUP3 DUP2 MSTORE POP PUSH0 DUP1 PUSH1 0x1 SLOAD DUP2 MSTORE PUSH1 0x20 ADD SWAP1 DUP2 MSTORE PUSH1 0x20 ADD PUSH0 KECCAK256 PUSH0 DUP3 ADD MLOAD DUP2 PUSH0 ADD SWAP1 DUP2 PUSH2 0x53E SWAP2 SWAP1 PUSH2 0xBA8 JUMP JUMPDEST POP PUSH1 0x20 DUP3 ADD MLOAD DUP2 PUSH1 0x1 ADD SWAP1 DUP2 PUSH2 0x554 SWAP2 SWAP1 PUSH2 0xBA8 JUMP JUMPDEST POP PUSH1 0x40 DUP3 ADD MLOAD DUP2 PUSH1 0x2 ADD SWAP1 DUP2 PUSH2 0x56A SWAP2 SWAP1 PUSH2 0xBA8 JUMP JUMPDEST POP SWAP1 POP POP PUSH1 0x1 SLOAD PUSH32 0x4DCC1AB7294BFBA74F40CD7A0EF3409E1FEC2BA6761321F919ECB4F3B5FE7A5E DUP5 DUP5 DUP5 PUSH1 0x40 MLOAD PUSH2 0x5A4 SWAP4 SWAP3 SWAP2 SWAP1 PUSH2 0x690 JUMP JUMPDEST PUSH1 0x40 MLOAD DUP1 SWAP2 SUB SWAP1 LOG2 POP POP POP JUMP JUMPDEST PUSH0 PUSH1 0x40 MLOAD SWAP1 POP SWAP1 JUMP JUMPDEST PUSH0 DUP1 REVERT JUMPDEST PUSH0 DUP1 REVERT JUMPDEST PUSH0 DUP2 SWAP1 POP SWAP2 SWAP1 POP JUMP JUMPDEST PUSH2 0x5D4 DUP2 PUSH2 0x5C2 JUMP JUMPDEST DUP2 EQ PUSH2 0x5DE JUMPI PUSH0 DUP1 REVERT JUMPDEST POP JUMP JUMPDEST PUSH0 DUP2 CALLDATALOAD SWAP1 POP PUSH2 0x5EF DUP2 PUSH2 0x5CB JUMP JUMPDEST SWAP3 SWAP2 POP POP JUMP JUMPDEST PUSH0 PUSH1 0x20 DUP3 DUP5 SUB SLT ISZERO PUSH2 0x60A JUMPI PUSH2 0x609 PUSH2 0x5BA JUMP JUMPDEST JUMPDEST PUSH0 PUSH2 0x617 DUP5 DUP3 DUP6 ADD PUSH2 0x5E1 JUMP JUMPDEST SWAP2 POP POP SWAP3 SWAP2 POP POP JUMP JUMPDEST PUSH0 DUP2 MLOAD SWAP1 POP SWAP2 SWAP1 POP JUMP JUMPDEST PUSH0 DUP3 DUP3 MSTORE PUSH1 0x20 DUP3 ADD SWAP1 POP SWAP3 SWAP2 POP POP JUMP JUMPDEST DUP3 DUP2 DUP4 MCOPY PUSH0 DUP4 DUP4 ADD MSTORE POP POP POP JUMP JUMPDEST PUSH0 PUSH1 0x1F NOT PUSH1 0x1F DUP4 ADD AND SWAP1 POP SWAP2 SWAP1 POP JUMP JUMPDEST PUSH0 PUSH2 0x662 DUP3 PUSH2 0x620 JUMP JUMPDEST PUSH2 0x66C DUP2 DUP6 PUSH2 0x62A JUMP JUMPDEST SWAP4 POP PUSH2 0x67C DUP2 DUP6 PUSH1 0x20 DUP7 ADD PUSH2 0x63A JUMP JUMPDEST PUSH2 0x685 DUP2 PUSH2 0x648 JUMP JUMPDEST DUP5 ADD SWAP2 POP POP SWAP3 SWAP2 POP POP JUMP JUMPDEST PUSH0 PUSH1 0x60 DUP3 ADD SWAP1 POP DUP2 DUP2 SUB PUSH0 DUP4 ADD MSTORE PUSH2 0x6A8 DUP2 DUP7 PUSH2 0x658 JUMP JUMPDEST SWAP1 POP DUP2 DUP2 SUB PUSH1 0x20 DUP4 ADD MSTORE PUSH2 0x6BC DUP2 DUP6 PUSH2 0x658 JUMP JUMPDEST SWAP1 POP DUP2 DUP2 SUB PUSH1 0x40 DUP4 ADD MSTORE PUSH2 0x6D0 DUP2 DUP5 PUSH2 0x658 JUMP JUMPDEST SWAP1 POP SWAP5 SWAP4 POP POP POP POP JUMP JUMPDEST PUSH2 0x6E3 DUP2 PUSH2 0x5C2 JUMP JUMPDEST DUP3 MSTORE POP POP JUMP JUMPDEST PUSH0 PUSH1 0x20 DUP3 ADD SWAP1 POP PUSH2 0x6FC PUSH0 DUP4 ADD DUP5 PUSH2 0x6DA JUMP JUMPDEST SWAP3 SWAP2 POP POP JUMP JUMPDEST PUSH0 DUP1 REVERT JUMPDEST PUSH0 DUP1 REVERT JUMPDEST PUSH32 0x4E487B7100000000000000000000000000000000000000000000000000000000 PUSH0 MSTORE PUSH1 0x41 PUSH1 0x4 MSTORE PUSH1 0x24 PUSH0 REVERT JUMPDEST PUSH2 0x740 DUP3 PUSH2 0x648 JUMP JUMPDEST DUP2 ADD DUP2 DUP2 LT PUSH8 0xFFFFFFFFFFFFFFFF DUP3 GT OR ISZERO PUSH2 0x75F JUMPI PUSH2 0x75E PUSH2 0x70A JUMP JUMPDEST JUMPDEST DUP1 PUSH1 0x40 MSTORE POP POP POP JUMP JUMPDEST PUSH0 PUSH2 0x771 PUSH2 0x5B1 JUMP JUMPDEST SWAP1 POP PUSH2 0x77D DUP3 DUP3 PUSH2 0x737 JUMP JUMPDEST SWAP2 SWAP1 POP JUMP JUMPDEST PUSH0 PUSH8 0xFFFFFFFFFFFFFFFF DUP3 GT ISZERO PUSH2 0x79C JUMPI PUSH2 0x79B PUSH2 0x70A JUMP JUMPDEST JUMPDEST PUSH2 0x7A5 DUP3 PUSH2 0x648 JUMP JUMPDEST SWAP1 POP PUSH1 0x20 DUP2 ADD SWAP1 POP SWAP2 SWAP1 POP JUMP JUMPDEST DUP3 DUP2 DUP4 CALLDATACOPY PUSH0 DUP4 DUP4 ADD MSTORE POP POP POP JUMP JUMPDEST PUSH0 PUSH2 0x7D2 PUSH2 0x7CD DUP5 PUSH2 0x782 JUMP JUMPDEST PUSH2 0x768 JUMP JUMPDEST SWAP1 POP DUP3 DUP2 MSTORE PUSH1 0x20 DUP2 ADD DUP5 DUP5 DUP5 ADD GT ISZERO PUSH2 0x7EE JUMPI PUSH2 0x7ED PUSH2 0x706 JUMP JUMPDEST JUMPDEST PUSH2 0x7F9 DUP5 DUP3 DUP6 PUSH2 0x7B2 JUMP JUMPDEST POP SWAP4 SWAP3 POP POP POP JUMP JUMPDEST PUSH0 DUP3 PUSH1 0x1F DUP4 ADD SLT PUSH2 0x815 JUMPI PUSH2 0x814 PUSH2 0x702 JUMP JUMPDEST JUMPDEST DUP2 CALLDATALOAD PUSH2 0x825 DUP5 DUP3 PUSH1 0x20 DUP7 ADD PUSH2 0x7C0 JUMP JUMPDEST SWAP2 POP POP SWAP3 SWAP2 POP POP JUMP JUMPDEST PUSH0 DUP1 PUSH0 PUSH1 0x60 DUP5 DUP7 SUB SLT ISZERO PUSH2 0x845 JUMPI PUSH2 0x844 PUSH2 0x5BA JUMP JUMPDEST JUMPDEST PUSH0 DUP5 ADD CALLDATALOAD PUSH8 0xFFFFFFFFFFFFFFFF DUP2 GT ISZERO PUSH2 0x862 JUMPI PUSH2 0x861 PUSH2 0x5BE JUMP JUMPDEST JUMPDEST PUSH2 0x86E DUP7 DUP3 DUP8 ADD PUSH2 0x801 JUMP JUMPDEST SWAP4 POP POP PUSH1 0x20 DUP5 ADD CALLDATALOAD PUSH8 0xFFFFFFFFFFFFFFFF DUP2 GT ISZERO PUSH2 0x88F JUMPI PUSH2 0x88E PUSH2 0x5BE JUMP JUMPDEST JUMPDEST PUSH2 0x89B DUP7 DUP3 DUP8 ADD PUSH2 0x801 JUMP JUMPDEST SWAP3 POP POP PUSH1 0x40 DUP5 ADD CALLDATALOAD PUSH8 0xFFFFFFFFFFFFFFFF DUP2 GT ISZERO PUSH2 0x8BC JUMPI PUSH2 0x8BB PUSH2 0x5BE JUMP JUMPDEST JUMPDEST PUSH2 0x8C8 DUP7 DUP3 DUP8 ADD PUSH2 0x801 JUMP JUMPDEST SWAP2 POP POP SWAP3 POP SWAP3 POP SWAP3 JUMP JUMPDEST PUSH32 0x496E76616C696420696D61676520494400000000000000000000000000000000 PUSH0 DUP3 ADD MSTORE POP JUMP JUMPDEST PUSH0 PUSH2 0x906 PUSH1 0x10 DUP4 PUSH2 0x62A JUMP JUMPDEST SWAP2 POP PUSH2 0x911 DUP3 PUSH2 0x8D2 JUMP JUMPDEST PUSH1 0x20 DUP3 ADD SWAP1 POP SWAP2 SWAP1 POP JUMP JUMPDEST PUSH0 PUSH1 0x20 DUP3 ADD SWAP1 POP DUP2 DUP2 SUB PUSH0 DUP4 ADD MSTORE PUSH2 0x933 DUP2 PUSH2 0x8FA JUMP JUMPDEST SWAP1 POP SWAP2 SWAP1 POP JUMP JUMPDEST PUSH32 0x4E487B7100000000000000000000000000000000000000000000000000000000 PUSH0 MSTORE PUSH1 0x22 PUSH1 0x4 MSTORE PUSH1 0x24 PUSH0 REVERT JUMPDEST PUSH0 PUSH1 0x2 DUP3 DIV SWAP1 POP PUSH1 0x1 DUP3 AND DUP1 PUSH2 0x97E JUMPI PUSH1 0x7F DUP3 AND SWAP2 POP JUMPDEST PUSH1 0x20 DUP3 LT DUP2 SUB PUSH2 0x991 JUMPI PUSH2 0x990 PUSH2 0x93A JUMP JUMPDEST JUMPDEST POP SWAP2 SWAP1 POP JUMP JUMPDEST PUSH32 0x4E487B7100000000000000000000000000000000000000000000000000000000 PUSH0 MSTORE PUSH1 0x11 PUSH1 0x4 MSTORE PUSH1 0x24 PUSH0 REVERT JUMPDEST PUSH0 PUSH2 0x9CE DUP3 PUSH2 0x5C2 JUMP JUMPDEST SWAP2 POP PUSH32 0xFFFFFFFFFFFFFFFFFFFFFFFFFFFFFFFFFFFFFFFFFFFFFFFFFFFFFFFFFFFFFFFF DUP3 SUB PUSH2 0xA00 JUMPI PUSH2 0x9FF PUSH2 0x997 JUMP JUMPDEST JUMPDEST PUSH1 0x1 DUP3 ADD SWAP1 POP SWAP2 SWAP1 POP JUMP JUMPDEST PUSH0 DUP2 SWAP1 POP DUP2 PUSH0 MSTORE PUSH1 0x20 PUSH0 KECCAK256 SWAP1 POP SWAP2 SWAP1 POP JUMP JUMPDEST PUSH0 PUSH1 0x20 PUSH1 0x1F DUP4 ADD DIV SWAP1 POP SWAP2 SWAP1 POP JUMP JUMPDEST PUSH0 DUP3 DUP3 SHL SWAP1 POP SWAP3 SWAP2 POP POP JUMP JUMPDEST PUSH0 PUSH1 0x8 DUP4 MUL PUSH2 0xA67 PUSH32 0xFFFFFFFFFFFFFFFFFFFFFFFFFFFFFFFFFFFFFFFFFFFFFFFFFFFFFFFFFFFFFFFF DUP3 PUSH2 0xA2C JUMP JUMPDEST PUSH2 0xA71 DUP7 DUP4 PUSH2 0xA2C JUMP JUMPDEST SWAP6 POP DUP1 NOT DUP5 AND SWAP4 POP DUP1 DUP7 AND DUP5 OR SWAP3 POP POP POP SWAP4 SWAP3 POP POP POP JUMP JUMPDEST PUSH0 DUP2 SWAP1 POP SWAP2 SWAP1 POP JUMP JUMPDEST PUSH0 PUSH2 0xAAC PUSH2 0xAA7 PUSH2 0xAA2 DUP5 PUSH2 0x5C2 JUMP JUMPDEST PUSH2 0xA89 JUMP JUMPDEST PUSH2 0x5C2 JUMP JUMPDEST SWAP1 POP SWAP2 SWAP1 POP JUMP JUMPDEST PUSH0 DUP2 SWAP1 POP SWAP2 SWAP1 POP JUMP JUMPDEST PUSH2 0xAC5 DUP4 PUSH2 0xA92 JUMP JUMPDEST PUSH2 0xAD9 PUSH2 0xAD1 DUP3 PUSH2 0xAB3 JUMP JUMPDEST DUP5 DUP5 SLOAD PUSH2 0xA38 JUMP JUMPDEST DUP3 SSTORE POP POP POP POP JUMP JUMPDEST PUSH0 SWAP1 JUMP JUMPDEST PUSH2 0xAED PUSH2 0xAE1 JUMP JUMPDEST PUSH2 0xAF8 DUP2 DUP5 DUP5 PUSH2 0xABC JUMP JUMPDEST POP POP POP JUMP JUMPDEST JUMPDEST DUP2 DUP2 LT ISZERO PUSH2 0xB1B JUMPI PUSH2 0xB10 PUSH0 DUP3 PUSH2 0xAE5 JUMP JUMPDEST PUSH1 0x1 DUP2 ADD SWAP1 POP PUSH2 0xAFE JUMP JUMPDEST POP POP JUMP JUMPDEST PUSH1 0x1F DUP3 GT ISZERO PUSH2 0xB60 JUMPI PUSH2 0xB31 DUP2 PUSH2 0xA0B JUMP JUMPDEST PUSH2 0xB3A DUP5 PUSH2 0xA1D JUMP JUMPDEST DUP2 ADD PUSH1 0x20 DUP6 LT ISZERO PUSH2 0xB49 JUMPI DUP2 SWAP1 POP JUMPDEST PUSH2 0xB5D PUSH2 0xB55 DUP6 PUSH2 0xA1D JUMP JUMPDEST DUP4 ADD DUP3 PUSH2 0xAFD JUMP JUMPDEST POP POP JUMPDEST POP POP POP JUMP JUMPDEST PUSH0 DUP3 DUP3 SHR SWAP1 POP SWAP3 SWAP2 POP POP JUMP JUMPDEST PUSH0 PUSH2 0xB80 PUSH0 NOT DUP5 PUSH1 0x8 MUL PUSH2 0xB65 JUMP JUMPDEST NOT DUP1 DUP4 AND SWAP2 POP POP SWAP3 SWAP2 POP POP JUMP JUMPDEST PUSH0 PUSH2 0xB98 DUP4 DUP4 PUSH2 0xB71 JUMP JUMPDEST SWAP2 POP DUP3 PUSH1 0x2 MUL DUP3 OR SWAP1 POP SWAP3 SWAP2 POP POP JUMP JUMPDEST PUSH2 0xBB1 DUP3 PUSH2 0x620 JUMP JUMPDEST PUSH8 0xFFFFFFFFFFFFFFFF DUP2 GT ISZERO PUSH2 0xBCA JUMPI PUSH2 0xBC9 PUSH2 0x70A JUMP JUMPDEST JUMPDEST PUSH2 0xBD4 DUP3 SLOAD PUSH2 0x967 JUMP JUMPDEST PUSH2 0xBDF DUP3 DUP3 DUP6 PUSH2 0xB1F JUMP JUMPDEST PUSH0 PUSH1 0x20 SWAP1 POP PUSH1 0x1F DUP4 GT PUSH1 0x1 DUP2 EQ PUSH2 0xC10 JUMPI PUSH0 DUP5 ISZERO PUSH2 0xBFE JUMPI DUP3 DUP8 ADD MLOAD SWAP1 POP JUMPDEST PUSH2 0xC08 DUP6 DUP3 PUSH2 0xB8D JUMP JUMPDEST DUP7 SSTORE POP PUSH2 0xC6F JUMP JUMPDEST PUSH1 0x1F NOT DUP5 AND PUSH2 0xC1E DUP7 PUSH2 0xA0B JUMP JUMPDEST PUSH0 JUMPDEST DUP3 DUP2 LT ISZERO PUSH2 0xC45 JUMPI DUP5 DUP10 ADD MLOAD DUP3 SSTORE PUSH1 0x1 DUP3 ADD SWAP2 POP PUSH1 0x20 DUP6 ADD SWAP5 POP PUSH1 0x20 DUP2 ADD SWAP1 POP PUSH2 0xC20 JUMP JUMPDEST DUP7 DUP4 LT ISZERO PUSH2 0xC62 JUMPI DUP5 DUP10 ADD MLOAD PUSH2 0xC5E PUSH1 0x1F DUP10 AND DUP3 PUSH2 0xB71 JUMP JUMPDEST DUP4 SSTORE POP JUMPDEST PUSH1 0x1 PUSH1 0x2 DUP9 MUL ADD DUP9 SSTORE POP POP POP JUMPDEST POP POP POP POP POP POP JUMP INVALID LOG2 PUSH5 0x6970667358 0x22 SLT KECCAK256 0xE PUSH27 0x1A96F462700CEEF2254535FBBB1CAEEE85A0B06133BBCF16A6FD7A RETURNDATACOPY PUSH14 0xC964736F6C634300081A00330000 "
				},
				"gasEstimates": {
					"creation": {
						"codeDepositCost": "649000",
						"executionCost": "681",
						"totalCost": "649681"
					},
					"external": {
						"getImage(uint256)": "infinite",
						"imageCount()": "2447",
						"images(uint256)": "infinite",
						"storeImage(string,string,string)": "infinite"
					}
				},
				"methodIdentifiers": {
					"getImage(uint256)": "2607aafa",
					"imageCount()": "92053b63",
					"images(uint256)": "84856482",
					"storeImage(string,string,string)": "ed840896"
				}
			},
			"storageLayout": {
				"storage": [
					{
						"astId": 13,
						"contract": "src/contracts/ImageStorage.sol:ImageStorage",
						"label": "images",
						"offset": 0,
						"slot": "0",
						"type": "t_mapping(t_uint256,t_struct(Image)8_storage)"
					},
					{
						"astId": 15,
						"contract": "src/contracts/ImageStorage.sol:ImageStorage",
						"label": "imageCount",
						"offset": 0,
						"slot": "1",
						"type": "t_uint256"
					}
				],
				"types": {
					"t_mapping(t_uint256,t_struct(Image)8_storage)": {
						"encoding": "mapping",
						"key": "t_uint256",
						"label": "mapping(uint256 => struct ImageStorage.Image)",
						"numberOfBytes": "32",
						"value": "t_struct(Image)8_storage"
					},
					"t_string_storage": {
						"encoding": "bytes",
						"label": "string",
						"numberOfBytes": "32"
					},
					"t_struct(Image)8_storage": {
						"encoding": "inplace",
						"label": "struct ImageStorage.Image",
						"members": [
							{
								"astId": 3,
								"contract": "src/contracts/ImageStorage.sol:ImageStorage",
								"label": "ipfsHash",
								"offset": 0,
								"slot": "0",
								"type": "t_string_storage"
							},
							{
								"astId": 5,
								"contract": "src/contracts/ImageStorage.sol:ImageStorage",
								"label": "title",
								"offset": 0,
								"slot": "1",
								"type": "t_string_storage"
							},
							{
								"astId": 7,
								"contract": "src/contracts/ImageStorage.sol:ImageStorage",
								"label": "description",
								"offset": 0,
								"slot": "2",
								"type": "t_string_storage"
							}
						],
						"numberOfBytes": "96"
					},
					"t_uint256": {
						"encoding": "inplace",
						"label": "uint256",
						"numberOfBytes": "32"
					}
				}
			},
			"userdoc": {
				"kind": "user",
				"methods": {},
				"version": 1
			}
		}
	}
}